:100000000C941E1B0C943B1B0C943B1B0C943B1B35
:100010000C943B1B0C943B1B0C943B1B0C943B1B08
:100020000C943B1B0C943B1B0C943B1B0C943B1BF8
:100030000C943B1B0C943B1B0C943B1B0C94B3315A
:100040000C943B1B0C943B1B0C94B71B0C943B1B5C
:100050000C943B1B0C943B1B0C943B1B0C943B1BC8
:100060000C943B1B0C943B1B0C943B1B0C943B1BB8
:100070000C943B1B0C943B1B0C94D42F0C943B1BFB
:100080000C943B1B0C943B1B0C943B1B67226A2279
:1000900084229F22BA22D522F0220A29292937292F
:1000A0003D293D29572965298B2D932DA12DA92D5A
:1000B000CA2DD22DE02DE82DF62DFE2D0C2E142E5E
:1000C000182D202D272D2F2D362D3E2D452D4D2D34
:1000D000542D5C2D632D6B2D722D3A313030303024
:1000E0003030303242433034354330464343353488
:1000F0003343303746433834314330323643363376
:1001000046433030392E3A313030303130303033B0
:100110004543303344433033434330414243373324
:100120004143303433433833384330333743303846
:10013000332E3A3130303032303030333643304184
:1001400042433833344330364143333746433344F4
:10015000374333313043343136433442432E3A311E
:100160003030303330303045304335444643354409
:1001700045433531394334334143344341433435C6
:100180003243353546433533302E3A313030303412
:1001900030303036374335433943353831433538DD
:1001A00033433538374335384243353933433539AE
:1001B00037433531382E3A31303030353030303900
:1001C0004243354133433541424335423343353170
:1001D0003132343146424543464535443445303763
:1001E000362E3A3130303036303030444542464396
:1001F0004442463130453041304536423045304545
:10020000344535463345313032433030322E3A3181
:100210003030303730303030353930304439324199
:100220004333364231303744394637323145304135
:100230004345364230453042462E3A313030303830
:100240003030303031433031443932413933374244
:1002500032303745314637434644303631433942F0
:1002600038434633462E3A3130303039303030332F
:1002700045394138364231383636383836423933E6
:1002800036394138344231393542313830453137E9
:10029000382E3A31303030413030304530454146EB
:1002A00030453044463031393832463144393239BC
:1002B000413935453946374532454338332E3A3191
:1002C00030303042303030463045304446303139BD
:1002D0003832463144393239413935453946374566
:1002E0003245454630453036422E3A313030304383
:1002F0003030304446303131443932384139354577
:100300003946373130393230323031313039324399
:1003100031303039412E3A313030304430303031A4
:10032000303932433030303038393538374231386F
:100330003237463837423933393941383245333725
:10034000302E3A313030304530303039374530306A
:100350003139374631463730303030333639413332
:10036000363939464543463830393139432E3A31EA
:100370003030304630303043313030323442313337
:10038000354231453832464630453045453046469F
:100390004631464545353134332E3A3130303130EF
:1003A00030303046463446333138333230383338E3
:1003B00046354638303331313946303830393343B9
:1003C00031303043452E3A313030313130303030F9
:1003D0003243303130393243313030453245454691
:1003E000304530343245303531453038304530369F
:1003F000372E3A31303031323030303930453044B8
:100400004330313231393133313931383230463994
:10041000333146413131444231314433462E3A3151
:100420003030313330303045343137463530374273
:100430003946373638393431334638423639354122
:100440003739353937393535452E3A313030313451
:100450003030303837393531363934443146373039
:100460003839353837423138313746383742393301
:1004700038394133412E3A3130303135303030382F
:1004800032453339374530303139374631463730E8
:1004900030303033363941333639394645434644B6
:1004A000372E3A3130303136303030383039314310
:1004B00030303032344231333542314538324646BD
:1004C000304530454530464646314630312E3A318A
:1004D0003030313730303045453533464634463399
:1004E00031383332303833384635463830333131AD
:1004F0003946303830393344452E3A31303031388E
:1005000030303043303030303243303130393243A4
:10051000303030453245434630453034324545353C
:1005200030453038442E3A3130303139303030387F
:100530003045303930453044433031323139313350
:100540003139313832304639333146413131443333
:10055000442E3A313030314130303042313144452F
:100560003431374635303742394637363839343109
:10057000334638423639354137393534432E3A31EE
:10058000303031423030303937393538373935311C
:1005900036393444314637303839353837423138D6
:1005A0003037463837423937312E3A3130303143DF
:1005B00030303038324533393745303031393746CD
:1005C00031463730303030333639413336393946B9
:1005D00045434636372E3A313030314430303038AA
:1005E00030393130323031323442313335423145B5
:1005F0003832464630453045453046464631463429
:10060000452E3A3130303145303030453035364680
:10061000463446333138333230383338463546384D
:10062000303331313946303830393337392E3A3179
:10063000303031463030303032303130324330318A
:100640003039323032303145304541463045303432
:100650003045433530453039462E3A31303032302E
:100660003030303830453039304530444330313225
:10067000313931333139313832304639333146410D
:1006800031314443432E3A31303032313030304210
:1006900031314445343137463530374239463736C3
:1006A00038393431334638423639354137393544B3
:1006B000422E3A31303032323030303937393538F5
:1006C00037393531363934443146373038393543A6
:1006D000463933444639333030443044332E3A318E
:1006E000303032333030303030443043444237449D
:1006F0004542373046423646383934413839353844
:100700003142353838363132382E3A3130303234A1
:100710003030303831424431314243304642454135
:10072000303938413139384132393832314446383C
:1007300042393830382E3A31303032353030303876
:100740003542373834363038354246384242373809
:1007500030363838424246384539413846394137D3
:10076000352E3A3130303236303030393639413941
:1007700037394138454235383836303845424438C3
:10078000454235383436303845424434352E3A31D6
:1007900030303237303030384545373936453139E9
:1007A0004242443841424438394237383036313891
:1007B0003942463830453032412E3A3130303238C5
:1007C00030303039304530333444383845333039BF
:1007D0004634303039463046364330383245303989
:1007E00030453044342E3A313030323930303032C6
:1007F0003044383830393336383030384145313983
:10080000304530323344383630393338353030398A
:10081000442E3A313030324130303037303933388D
:100820003630303830393338373030393039333882
:10083000383030383345303930453041442E3A3144
:100840003030324230303031304438383938333853
:100850003039333637303038344530393045303040
:100860004144383830393330372E3A313030324322
:10087000303030363630303835453039304530302C
:100880003544383930453039303933363530303801
:1008900030393330422E3A31303032443030303615
:1008A00034303038364530393045304644443738B6
:1008B00030393336333030383745303930453043CE
:1008C000332E3A31303032453030304638443738C4
:1008D00030393336323030383645313930453030C2
:1008E000304438393039333631303039372E3A31B7
:1008F00030303246303030383039333630303038BE
:100900003845313930453045434437303832453049
:100910003030433939304230392E3A31303033308B
:10092000303030393039333834303038303933388A
:10093000333030383945313930453045324437303D
:1009400038324545372E3A3130303331303030305F
:100950003030433939304239303933383230303839
:10096000303933383130303838453039304530312E
:10097000432E3A3130303332303030443844373817
:100980003039333830303033393831333233303333
:10099000384630383145303830393344332E3A31E7
:1009A0003030333330303036373030363145303810
:1009B00033453039304530444544373830393136A5
:1009C0003630303831353034352E3A3130303334FA
:1009D00030303038383343313846303831453038AC
:1009E00030393336363030383039313634303039CA
:1009F00030393137312E3A313030333530303036CE
:100A00003530303030393731394630384633463971
:100A1000313035333146343838453239304530336A
:100A2000352E3A3130303336303030393039333694
:100A3000353030383039333634303038303931367B
:100A4000333030384135303842333538302E3A3152
:100A50003030333730303031384630383245333843
:100A6000303933363330303830393136323030384F
:100A70004135303842333538442E3A31303033380E
:100A8000303030313846303831453338303933360C
:100A90003230303830393136303030393039313623
:100AA00031303039392E3A3130303339303030301E
:100AB00041393738463344393334303330463038AF
:100AC00038453539314530393039333631303039C0
:100AD000422E3A31303033413030303830393336CD
:100AE00030303038303931383330303930393138CE
:100AF000343030384335393946344643452E3A315F
:100B00003030334230303038393343393130353298
:100B10003046303130393238343030313039323893
:100B20003330303830393137362E3A313030334384
:100B30003030303833303039303931383430303982
:100B4000433031323230463333314638383046392B
:100B500039314639362E3A3130303344303030383E
:100B600038304639393146383830463939314638E7
:100B70003230463933314639303933383430303910
:100B8000352E3A3130303345303030383039333823
:100B9000333030383039313831303039303931381C
:100BA000323030384335393946344636462E3A31BC
:100BB00030303346303030383933433931303532E4
:100BC00030463031303932383230303130393238E5
:100BD0003130303830393133412E3A3130303430E1
:100BE00030303038313030393039313832303039D6
:100BF000433031323230463333314638383046397B
:100C000039314635392E3A313030343130303038A0
:100C10003830463939314638383046393931463836
:100C20003230463933314639303933383230303565
:100C3000362E3A3130303432303030383039333883
:100C40003130304638393438303931363830303553
:100C5000434436383045303930453033312E3A311F
:100C6000303034333030303743443537383934431B
:100C700031324330463245463845314546324546A5
:100C80003145304646324534312E3A3130303434F5
:100C900030303046303244304632454635453039C2
:100CA0004632454630324430463245463545354178
:100CB00046324539462E3A313030343530303046C0
:100CC0003032443044453631314530304632454685
:100CD000434530424632454630324444443234374C
:100CE000372E3A31303034363030304433393430C6
:100CF0004632454639453038463245463032443032
:100D0000463245463445393246324542452E3A311F
:100D10003030343730303046314531334632454655
:100D2000303244453143304230453242393833392C
:100D30004544454539383143422E3A313030343814
:100D40003030304531353045393833453131314631
:100D500041434639384445383039333830303036FD
:100D600038324637342E3A3130303439303030383A
:100D700038453039304530333044373646454638CB
:100D800032453039304530324344373430453032E3
:100D9000412E3A31303034413030303530453042F8
:100DA00041303138414531393045303337443736B9
:100DB000304530383345303930453036352E3A31CC
:100DC00030303442303030323244373633453038C8
:100DD000344530393045303145443736384532387E
:100DE0003545303930453031382E3A3130303443A2
:100DF000303030314144373632453338364530397A
:100E0000304530313644373631453338374530395F
:100E100030453031382E3A31303034443030303192
:100E20003244373638453537314530383645313933
:100E30003045303236443736304530383845313138
:100E4000382E3A313030344530303039304530305A
:100E5000394437363045303839453139304530300E
:100E6000354437364545303746453031392E3A31ED
:100E7000303034463030303830453039304530311C
:100E80003944374637454332464533333245304699
:100E90003135303230343039342E3A31303035302B
:100EA00030303033303430453146373030433030F5
:100EB00030303039384530383845313046423646A2
:100EC00038393442312E3A313030353130303041DA
:100ED000383935383142443046424539314244464A
:100EE000464346383245304338313642314631394F
:100EF000352E3A31303035323030303933453043A9
:100F00003931363039463435344330413145304358
:100F1000413132383543303435444541332E3A314E
:100F20003030353330303039303933393030303893
:100F3000303933384630303230393136373030326C
:100F40003131313744433044462E3A313030353434
:100F5000303030323039313830303033304530385D
:100F60003231373933303742304630444330314103
:100F700032314246442E3A3130303535303030420D
:100F80003330423230393136343030333039313623
:100F900035303041464436324145303330453030CB
:100FA000332E3A313030353630303034304530350C
:100FB00030453038384436323533394231453133B3
:100FC000423037353046343330393341342E3A31BC
:100FD00030303537303030393030303230393338E6
:100FE00046303036314330313039323930303031BB
:100FF0003039323846303032352E3A3130303538AB
:10100000303030354343303330393239303030329C
:10101000303932384630303537433044444444392F
:1010200030393343382E3A3130303539303030387A
:10103000433030383039333842303032303931365D
:10104000373030323131313445433041303931413C
:10105000382E3A3130303541303030363330303957
:101060004330314230453038394436323039313806
:10107000333030333039313834303045332E3A3133
:101080003030354230303036323046373331463703
:1010900030393338433030363039333842303036F7
:1010A0003133313737343245302E3A3130303543F1
:1010B00030303045304631323045313337453233C8
:1010C00030393338433030323039333842303033CE
:1010D00035433042452E3A313030354430303038A7
:1010E000324444393039333841303038303933388C
:1010F00039303038353338333345303933303730A1
:10110000392E3A3130303545303030323846303192
:10111000303932384130303130393238393030328C
:10112000374330323039313637303039442E3A3166
:101130003030354630303032313131323343303077
:101140003039373039463141303931363230303943
:101150004330314230453039352E3A313030363037
:1011600030303035434436444330314342303138F7
:1011700038354239413436413130394231303932F3
:1011800030393133372E3A31303036313030303833
:101190003130303330393138323030423930313615
:1011A00038304637393146373039333841303043BB
:1011B000302E3A3130303632303030363039333804
:1011C00039303036313337373734313430463041C7
:1011D000304537423745314230393336432E3A3184
:1011E00030303633303030384130304130393338B8
:1011F000393030303143304331324343333934387E
:101200003039313944303043312E3A313030363490
:101210003030303831313134434330463039313673
:10122000383030443730314643393331313936394B
:1012300043393245372E3A3130303635303030315F
:101240003139373730393138463030453039313936
:10125000303030313239364543393331323937392C
:10126000312E3A313030363630303031333936374E
:10127000433933313339373530393138423030360C
:10128000303931384330303134393639352E3A310E
:101290003030363730303036433933313439373106
:1012A00035393635433933313539373330393138DB
:1012B0003930303430393136462E3A3130303638E4
:1012C00030303038413030313639363443393331CB
:1012D000363937313739363343393331373937399E
:1012E00030393135442E3A313030363930303039BA
:1012F00031303032303931393230303138393632BC
:10130000433933313839373139393639433933385C
:10131000432E3A3130303641303030313939373878
:10132000303931363730303141393638433933414D
:10133000354535423145304643393341392E3A310E
:101340003030364230303039303932353630314550
:10135000303933353730313730393335383031364D
:101360003039333539303134442E3A313030364328
:101370003030303530393335413031343039333530
:10138000423031333039333543303132303933350F
:1013900044303138432E3A313030364430303039F1
:1013A00030393335453031383039333546303141D5
:1013B00030393236303031463830313730383041DC
:1013C000392E3A31303036453030303830393136D8
:1013D00038303037383132313943463831383139A5
:1013E000304530384633303931303535382E3A31A2
:1013F000303036463030303038463037464332466B
:101400004330314544354546463446303939343821
:101410003039313731303030432E3A313030373097
:101420003030303831333037314634363039313678
:10143000463031383245303930453046344435391C
:1014400038453035462E3A3130303731303030384B
:1014500038453130464236463839344138393538E6
:101460003142443046424539314244464643464281
:10147000422E3A3130303732303030433139413812
:1014800033453238434239363543323830393137D3
:10149000313030383133303039463037312E3A310F
:1014A00030303733303030353043304438303131FC
:1014B00032393633433931313239373333333030DF
:1014C0003846303439433034452E3A3130303734B1
:1014D00030303031333936324339313133393732C4
:1014E000383332303846303433433031363936349D
:1014F00043393042432E3A31303037353030303195
:10150000363937353132433631324337313243376A
:101510003632433635324335343243343432343262
:10152000412E3A3130303736303030313739363479
:101530004339313834324639304530413045304214
:10154000304530343039313844303036452E3A3138
:10155000303037373030303530393138453030364B
:10156000304530373045304241303135353237340F
:101570003432373434323936422E3A31303037381B
:101580003030303535323936363239373732393412
:10159000383242353932423641324237423242469F
:1015A00038303139312E3A313030373930303046F9
:1015B000343831463938334646323337314630468F
:1015C0003830314635383146413833464632334477
:1015D000372E3A31303037413030303439463042AE
:1015E0003330314132303145393831374532423488
:1015F000383242353932423641324231412E3A3167
:10160000303037423030303742324236463242385C
:10161000323246393045304638453233463946381D
:101620003030443931314445352E3A31303037434A
:10163000303030313132343838304639393146384B
:1016400038304639393146383035453946344641E7
:1016500034443531312E3A31303037443030303146
:1016600030433243313941383345323843423930DF
:1016700043433244383031313239363243393133F1
:10168000362E3A313030374530303031323937321A
:1016900033333038304635313339363843393138E1
:1016A000383332363046353930453035332E3A31DD
:1016B00030303746303030423845323242394638A1
:1016C00030304439313144313132343838304639B0
:1016D0003931463838304633462E3A31303038309A
:1016E0003030303939314638303545394634463670
:1016F0004444353230393139443030323133304579
:1017000031463341462E3A31303038313030304472
:10171000303932394430304535453546314530353C
:101720004232433131393235413934453946373423
:10173000362E3A313030383230303041354535424E
:101740003145303743393237303932353630313937
:10175000303933353730313830393342382E3A3139
:101760003030383330303035383031373039333548
:101770003930313630393335413031413039323614
:101780003030314331394143362E3A3130303834FC
:1017900030303038433931384342394436433143AD
:1017A0003139413833453238434239443243313696
:1017B00044324437442E3A313030383530303038C6
:1017C00033453039304530353044354430393236A0
:1017D000373030434243313630453038334530417D
:1017E000382E3A31303038363030303930453034B8
:1017F000394435313039323637303043344331387B
:10180000303931394430303831333030442E3A3188
:101810003030383730303045314633443039323962
:101820004430304535453546314530354232433117
:101830003139323541393446322E3A313030383848
:1018400030303045394637413545354231453037FE
:101850004339324238453042303933353630313809
:1018600030393131432E3A3130303839303030363A
:10187000393030393039313641303039303933351B
:10188000373031383039333538303141303932340E
:10189000422E3A31303038413030303630303143FA
:1018A00031394145354535463145303830383138A4
:1018B000434239413243314438303136462E3A3191
:1018C00030303842303030313239363243393131CC
:1018D000323937313339363843393139304530418F
:1018E0003045304230453045342E3A31303038437F
:1018F000303030444330313939323738383237427A
:101900003232424638303132353831383232423272
:1019100034383130452E3A31303038443030303977
:101920003232423830393336443030393039333658
:101930004530304130393336463030423039333635
:10194000352E3A313030384530303037303030385D
:101950003039313944303038313330453146334411
:10196000303932394430304135453544432E3A31EF
:1019700030303846303030423145304542324431E3
:101980004439324541393545394637413545354287
:101990003145303743393231382E3A3130303930F1
:1019A00030303038303932353630314143453042CD
:1019B0003145304536453346314530323045303398
:1019C00030453042372E3A313030393130303033D3
:1019D000433833324238333444393135443931367F
:1019E0004439313744393134313135353130354589
:1019F000362E3A31303039323030303631303537BA
:101A0000313035423146313930383139313330397E
:101A1000394635433930313730393331432E3A3155
:101A20003030393330303035373031363039333586
:101A30003830313530393335393031343039333568
:101A40004130314639303141452E3A313030393428
:101A500030303045453046464631464446303141C7
:101A600035354342453446324339313131393633E5
:101A700043393136442E3A31303039353030303117
:101A8000313937333039333542303132303933350B
:101A90004330314543354646453446323038313897
:101AA000372E3A3130303936303030333138313307
:101AB00030393335443031323039333545303131D6
:101AC000313832313038324643303138302E3A31C5
:101AD000303039373030304545304646463146455E
:101AE000453046464631464534354646453446310E
:101AF0003038323131383238432E3A31303039389B
:101B00003030303132383231333832314439323199
:101B100043393246433031454135434645344631F9
:101B200030383242462E3A31303039393030303068
:101B30003743303246354633463446333139363210
:101B40003333303331303530394630423843464113
:101B5000342E3A313030394130303041303932363C
:101B600030303143313941453545354631453038DE
:101B7000303831384342393830393136372E3A31FE
:101B80003030394230303036443030393039313607
:101B900045303041303931364630304230393137D6
:101BA0003030303830393344372E3A3130303943E1
:101BB00030303037433030393039333744303041CA
:101BC00030393337453030423039333746303031B1
:101BD00031433143362E3A313030394430303038A9
:101BE00030393137313030383133303039463030B8
:101BF0004343314438303131323936384339313862
:101C0000302E3A3130303945303030313239373892
:101C1000313131303643303133393636433931386A
:101C2000324530393045303833443433372E3A3149
:101C30003030394630303030304331383133303461
:101C40003946344638303136333831363233303035
:101C50003846304639433032382E3A313030413010
:101C600030303038334530393045303738443446F9
:101C70003543303832333036314634443830313100
:101C800033393638392E3A31303041313030303610
:101C900043393138454546383630463832333630A8
:101CA0003846304542433038344530393045303994
:101CB000382E3A31303041323030303641443445BC
:101CC000374330383333303539463446383031369F
:101CD000333831384645463836304646312E3A316B
:101CE0003030413330303038453346303846304478
:101CF0004543303835453039304530354444344437
:101D00004143303834333046462E3A313030413456
:101D1000303030363146344438303131333936366C
:101D20004339313835454638363046383933353021
:101D300038463031332E3A3130304135303030444E
:101D400030433038364530393045303446443443FA
:101D500043433038353330353946344638303138FE
:101D6000362E3A3130304136303030363338313833
:101D700035454638363046383933353038463043C5
:101D8000334330383745303930453038392E3A31E1
:101D900030304137303030343244344246433038CA
:101DA00036333037394634443830313133393636CA
:101DB0004339313133393739352E3A3130304138C2
:101DC00030303037304530373632463636323731BC
:101DD0003439363843393136383046373131443882
:101DE00036453142312E3A31303041393030303998
:101DF0003045303441443441454330383733303551
:101E00003946344638303136333831383345363157
:101E1000302E3A313030414130303038363046386B
:101E2000373343303846304135433038384531391F
:101E3000304530323444344131433035462E3A3126
:101E40003030414230303038383330363146344427
:101E50003830313133393636433931383345363815
:101E60003630463837334345392E3A3130304143E6
:101E700030303030384630393743303839453139F1
:101E800030453031364434393343303839333030EB
:101E900039463030452E3A313030414430303039D7
:101EA00030433046383031363338313630393338D4
:101EB00030303038384530393045303042443442A3
:101EC000462E3A31303041453030303838433036A4
:101ED0003045303730453038304530393045303195
:101EE000454434393845303838453138422E3A3156
:101EF0003030414630303030464236463839344151
:101F00003839353831424430464245393142444609
:101F10004643464438303136382E3A31303042303C
:101F2000303030313239363843393138323330306D
:101F30003846303734433038303933373130303742
:101F400031433038442E3A3130304231303030383D
:101F5000303931394430303831333045314633440B
:101F600030393239443030453545354631453030E9
:101F7000382E3A313030423230303035423243310F
:101F800031393235413934453946374135453542A5
:101F9000314530374339323930393238322E3A31DF
:101FA00030304233303030353630314638303138E9
:101FB00032383139304530384133303931303530CD
:101FC0003846303433433041372E3A3130304234A2
:101FD000303030464330314545354446463446304E
:101FE000393934373039323537303133434330388B
:101FF00030393130422E3A3130304235303030369F
:102000003730303830393335373031333743303883
:102010003039313636303038303933353730314574
:10202000412E3A313030423630303033324330385E
:102030003039313634303039303931363530303965
:10204000303933353730313830393330412E3A3149
:102050003030423730303035383031323943303833
:10206000303931363330303830393335373031323A
:102070003443303830393135462E3A3130304238F9
:102080003030303632303038303933353730313126
:1020900046433038303931363030303930393136E6
:1020A00031303043362E3A313030423930303039E9
:1020B00030393335373031383039333538303131E4
:1020C00036433038303931383330303930393145B2
:1020D000332E3A31303042413030303834303039BC
:1020E00030393335373031383039333538303130B5
:1020F000444330383039313831303037422E3A317C
:102100003030424230303039303931383230303985
:102110003039333537303138303933353830313084
:102120003443303830393144362E3A31303042433E
:102130003030303830303038303933353730314165
:10214000303932363030314331394141354535420D
:1021500031453033312E3A3130304244303030382E
:1021600043393138434239304543303631453037D1
:1021700030453038454531393045304134443346B7
:10218000452E3A31303042453030303938453038DC
:102190003845313046423646383934413839353899
:1021A000314244304642453931424433442E3A317B
:1021B000303042463030304646434646383031357E
:1021C0004232433131393235413934453946373875
:1021D0004543433146393232422E3A313030433072
:1021E000303030304639323046423630463932317E
:1021F0003132343846393339463933454639334636
:1022000046393334302E3A31303043313030303883
:102210003039313934303039303931393530303086
:102220003139363930393339353030383039333166
:10223000372E3A3130304332303030393430303864
:10224000324233383035383832424238303931371B
:10225000353030383133303631463435412E3A312D
:102260003030433330303045303931373430304618
:10227000304530454530464646314645433546466D
:102280004534463830383134422E3A3130304334D8
:1022900030303039313831303139363931383338FE
:1022A0003038334646393145463931394639313887
:1022B00046393138342E3A313030433530303030D1
:1022C0004639303046424530463930314639303172
:1022D0003839353146393230463932304642363176
:1022E000362E3A31303043363030303046393231A4
:1022F0003132343846393239463932414639324240
:10230000463932454639324646393242382E3A311C
:10231000303043373030303046393331463933325C
:102320004639333346393334463933354639333613
:102330004639333746393341342E3A313030433819
:1023400030303038463933394639334146393342F3
:1023500046393343463933444639334546393346A3
:1023600046393339342E3A31303043393030303811
:1023700030393139333030453832464630453045D2
:102380004530464646314645343544464534463266
:10239000302E3A31303043413030303230393139FB
:1023A00034303033303931393530303331383332FD
:1023B000303833384635463835333041462E3A3199
:1023C00030304342303030313946303830393339AB
:1023D00033303031394330313039323933303038BD
:1023E0003039313743303045412E3A313030434374
:1023F000303030393039313744303041303931378D
:10240000453030423039313746303030313936415D
:1024100031314443322E3A3130304344303030424F
:10242000313144383039333743303039303933374C
:10243000443030413039333745303042303933322F
:10244000332E3A3130304345303030374630303932
:1024500032423338304534383932373832424245E7
:10246000434532463145304330383130462E3A31DB
:1024700030304346303030443138313832383139F9
:1024800033383143383046443931463834383139BD
:102490003538314338304643412E3A3130304430BC
:1024A00030303044393146383638313937383143B5
:1024B000383046443931463830383539313835438B
:1024C00038304630422E3A313030443130303044AA
:1024D00039314638303931363730303831313131B1
:1024E000304330394530314130453342354537345A
:1024F000332E3A313030443230303043434432327C
:1025000030393136303030333039313631303034A3
:10251000304530353045304133443232442E3A3143
:102520003030443330303033303933393230303278
:102530003039333931303030344330443039333945
:102540003230304330393330452E3A313030443434
:10255000303030393130303830393136363030394A
:1025600030453043383137443930373038463434E9
:1025700042433036352E3A31303044353030303207
:102580003039313738303033303931373930303213
:1025900038313733393037303846304138433035C9
:1025A000312E3A31303044363030303830393137EE
:1025B00035303038313131413443303831453038BD
:1025C000303933373530303130393237432E3A31C4
:1025D00030304437303030373430303830393133C0
:1025E0003630313838323337394630383039313394
:1025F0003730313831313143382E3A313030443888
:10260000303030303443303831453038303933377A
:102610003430303037433038303931333830313876
:1026200031313131342E3A3130304439303030307C
:10263000334330383245303830393337343030383E
:10264000303931373430303930453046433031421B
:10265000352E3A31303044413030304545304646F1
:102660004631464543354646453446443138334382
:10267000303833383830463939314641412E3A31D5
:1026800030304442303030383830463939314646BF
:102690004330314534354646453446383039313794
:1026A0004330303930393141392E3A3130304443BA
:1026B00030303037443030413039313745303042B6
:1026C00030393137463030303139374131303942A5
:1026D00031303933422E3A313030444430303038A2
:1026E0003038333931383341323833423338333884
:1026F0003145303930453039303933373330303384
:10270000412E3A313030444530303038303933376B
:102710003230303737433032303931373830303378
:10272000303931373930303238313741352E3A315E
:102730003030444630303033393037303846343535
:102740004443303830393137353030383133303038
:102750003946303641433034302E3A31303045300E
:102760003030303030393137343030313045304628
:102770003830314545304646463146454530464677
:1027800046314642452E3A313030453130303045C1
:1027900034354646453446343038313531383136B3
:1027A00032383137333831383039313743303034DB
:1027B000422E3A31303045323030303930393137CD
:1027C000443030413039313745303042303931379B
:1027D000463030383431373935303737452E3A3195
:1027E000303045333030304136303742373037358E
:1027F000304630463830314545304646463146450C
:102800003535434645344636352E3A313030453439
:10281000303030383431423935304239313833385C
:10282000303833303743304638303145453046460E
:1028300046314637312E3A3130304535303030452B
:1028400035354346453446313138323130383243FC
:102850003830313838304639393146394330313201
:10286000412E3A3130304536303030324335463300
:1028700045344637393031463930313230383133EA
:10288000313831413445364230453038392E3A31CD
:1028900030304537303030323444323442303135E4
:1028A00043303132303931363030303330393136EF
:1028B0003130304144454330372E3A31303045389D
:1028C000303030424345433142443239363935386D
:1028D0003739353936393538373935323832463384
:1028E00030453044382E3A3130304539303030348C
:1028F0003045303530453043353031423430314564
:10290000454431463730313331383332303833375C
:10291000392E3A313030454130303046383031454B
:102920004135434645344638314530383038333107
:10293000303932373530303132433036392E3A3152
:10294000303045423030303830393137353030383A
:10295000313330373146343830393137323030392D
:102960003039313733303037462E3A313030454305
:102970003030303031393639303933373330303820
:102980003039333732303038313342393434303102
:1029900030463045302E3A313030454430303031D9
:1029A00030393237353030383039313741303039DD
:1029B00030393137423030393039333739303033CC
:1029C000382E3A31303045453030303830393337B1
:1029D0003830304430393337423030433039333790
:1029E000413030313039323935303039352E3A31A5
:1029F000303045463030303130393239343030467D
:102A000046393145463931444639314346393142F8
:102A10004639314146393134432E3A31303046302F
:102A20003030303946393138463931374639313628
:102A30004639313546393134463931334639313208
:102A400046393132312E3A31303046313030303142
:102A500046393130463931464639304546393042BB
:102A600046393041463930394639303846393039BF
:102A7000372E3A313030463230303030463930300F
:102A800046424530463930314639303138393542A1
:102A9000393941433139383841394138412E3A3199
:102AA00030304633303030393239383130424338C3
:102AB000424530383942393142423835393938386F
:102AC0004142313838364431412E3A313030463483
:102AD000303030384142393830423538363638387F
:102AE0003042443038393534343233373946304166
:102AF00036324642432E3A3130304635303030425D
:102B00003732464643303134313530323432463351
:102B10003045303246354633463446323830463614
:102B2000372E3A313030463630303033393146394D
:102B3000443931393139334532313746333037440E
:102B4000394637303839353146393243362E3A3105
:102B50003030463730303030463932304642363009
:102B600046393231313234324639333346393334EF
:102B70004639333546393343442E3A3130304638BE
:102B800030303036463933374639333846393339C1
:102B9000463933414639334246393345463933465F
:102BA00046393335312E3A313030463930303039CC
:102BB000434231323242333830453438323237389A
:102BC0003242423830393136383030393831334397
:102BD000312E3A31303046413030303130433038A8
:102BE0003039313946303038313131304343303883
:102BF000303931394430303831313132332E3A3195
:102C00003030464230303030384330383039313966
:102C10004630303846354638303933394630303929
:102C20003039333631303139342E3A313030464351
:102C30003030303546433039353335413946343814
:102C4000303931394630303831333030394630342C
:102C500039433033382E3A31303046443030303812
:102C60003039313944303038313131343543303115
:102C700030393239463030383145303830393331F7
:102C8000372E3A31303046453030303944303031EB
:102C900030393239453030433139413830393135C6
:102CA000353031384342393438433031352E3A31BA
:102CB00030304646303030383039313946303038AF
:102CC00031313133414330333143303830393139A8
:102CD0004430303831313138342E3A3130313030BF
:102CE000303030304343304530393139463030466A
:102CF0003045304546353946453446393038333825
:102D000030393137422E3A3130313031303030398C
:102D1000463030384635463830393339463030332E
:102D20003343303935333546394634383039314418
:102D3000362E3A313031303230303039463030385A
:102D4000423330363946343830393139443030380E
:102D5000313131303943303443453044342E3A3107
:102D60003031303330303036314536373145303818
:102D700044453639314530383844463130393239B6
:102D80004630303230433041432E3A3130313034E6
:102D900030303038303931394430303831333035F3
:102DA00031463438303931394530303842333033B8
:102DB00031463436442E3A313031303530303031CE
:102DC000303932394430303130393239453030439E
:102DD000313938313243303130393239463030418F
:102DE000352E3A313031303630303030464330389D
:102DF0003039313946303038383233443146323068
:102E0000354330383039313946303031452E3A315A
:102E10003031303730303038423330313846324656
:102E20003343463830393139463030384233303820
:102E30003046364244434637432E3A3130313038FB
:102E400030303046463931454639314246393141D4
:102E500046393139463931384639313746393136D4
:102E600046393136302E3A31303130393030303524
:102E700046393134463931334639313246393130C9
:102E800046393030464245304639303146393033A4
:102E9000362E3A31303130413030303138393531F9
:102EA0004639323046393230464236304639323190
:102EB000313234384639334546393330322E3A319F
:102EC000303130423030304646393338303931399C
:102ED000443030383133303639463438303931398E
:102EE0004530303846354634352E3A31303130436E
:102EF0003030303830393339453030453039313978
:102F000045303046304530454235414645344638F7
:102F100030383146442E3A3130313044303030434D
:102F200031394138434239464639314546393138DD
:102F300046393130463930304642453046393033F3
:102F4000352E3A313031304530303031463930313C
:102F500038393538324239383642373835363438F0
:102F6000364246384645463830393336442E3A31B3
:102F7000303130463030303033303138354235380A
:102F800037363038354244383942373830363438BD
:102F90003942463130393237422E3A3130313130D0
:102FA00030303030423031313039323339303130F5
:102FB000383935314639323046393230464236308A
:102FC00046393241322E3A313031313130303031C0
:102FD0003132343246393333463933344639333576
:102FE000463933364639333746393338463933462E
:102FF000432E3A3130313132303030394639334175
:1030000046393342463933454639334646393338F3
:10301000303931304230313831333031372E3A3176
:103020003031313330303033314634383039313368
:10303000393031384635463830393333393031302C
:103040003643303830393132442E3A313031313430
:10305000303030304230313831313130324330313C
:103060003039323339303138303931333930313821
:1030700034333036342E3A3130313135303030312E
:1030800038463038303931363830304336444646A9
:103090004639314546393142463931414639314365
:1030A000392E3A31303131363030303946393138D5
:1030B000463931374639313646393135463931347A
:1030C000463931334639313246393142462E3A316A
:1030D000303131373030303046393030464245308B
:1030E0004639303146393031383935314639323068
:1030F0004639323046423646312E3A313031313857
:103100003030303046393231313234384639333963
:1031100046393345463933464639333832423338F7
:1031200030353831342E3A31303131393030303871
:1031300032424238314231383837463830333841FC
:103140003146303138463438303336333146304109
:10315000442E3A313031314130303035354330381A
:1031600038334142394631383833424139463135B6
:10317000304330383145303830393344442E3A31D9
:103180003031314230303030423031313039323309
:103190003930313835454338364246384645463869
:1031A0003039333033303146432E3A3130313143C8
:1031B00030303035314330383342313930393130C5
:1031C0003330313946334637394634393039313383
:1031D00041303130452E3A313031314430303039A0
:1031E0004635463930393333413031383533313172
:1031F000384634383039333033303130324330317F
:10320000382E3A313031314530303031303932308A
:103210003330313835454338364246334443304500
:10322000303931303330314630453036312E3A3155
:1032300030313146303030454635424645344638E7
:10324000303833383039313033303138463546381C
:103250003039333033303133422E3A31303132303D
:103260003030303830393130333031383333313138
:103270003846343835454338364246324243303892
:1032800035453846422E3A313031323130303038DF
:1032900036424632384330383039313033303138C5
:1032A00046334631314634313039323033303131C2
:1032B000332E3A31303132323030304530393130DE
:1032C000333031463045304538354546453446384B
:1032D000303831383342393830393139382E3A3193
:1032E0003031323330303030333031384635463893
:1032F00030393330333031383039313033303138A0
:103300003333313138463444302E3A31303132346F
:103310003030303835454338364246304643303811
:103320003545383836424630434330313039323013
:1033300042303145442E3A3130313235303030313F
:10334000303932333930313831423138313131303E
:1033500033433038364237383036393836424643D0
:10336000302E3A313031323630303038354543380E
:103370003642464646393145463931394639313883
:10338000463931304639303046424546432E3A318F
:1033900030313237303030304639303146393031E3
:1033A000383935413145323141324541413142426E
:1033B0004231424644303130462E3A313031323893
:1033C000303030304443304141314642423146454D
:1033D0004531464646314641323137423330374532
:1033E00034303736352E3A3130313239303030469C
:1033F0003530373230463041323142423330424547
:10340000343042463530423636314637373146421F
:10341000442E3A313031324130303038383146394B
:103420003931463141393436394637363039353716
:10343000303935383039353930393539442E3A312B
:103440003031324230303039423031414330314214
:1034500044303143463031303839354132394642D3
:103460003030314233394637362E3A3130313243FB
:1034700030303043303031413339463031443042DE
:1034800032394637303044383131443131323439D1
:1034900031314446422E3A313031324430303030CE
:1034A000383935453139394645434639464242383F
:1034B0004542424530394139393237384442333058
:1034C000442E3A31303132453030303038393541A0
:1034D0003645314230453034344530353045303270
:1034E000344330413845314230453046392E3A3147
:1034F000303132463030303432453035304530317D
:1035000046433032363246453139394645434639ED
:103510004642423845424237452E3A313031333007
:103520003030304530394130313937304442323033
:1035300032313633314630324442423046423646EA
:1035400038393439412E3A31303133313030304529
:1035500032394145313941304642453038393530CC
:10356000333936323732464544444645424446456F
:10357000372E3A3130313332303030323532464501
:10358000414446323432464538434630313936328A
:10359000373246453544464533434633332E3A3178
:1035A00030313333303030444330314342303146B0
:1035B000433031453139394645434630364330464C
:1035C0004642424545424239372E3A313031333452
:1035D0003030304530394133313936304442323081
:1035E0004439323431353035303430423846373072
:1035F00038393539312E3A30343133353030304680
:103600003839344646434633462E3A304331333513
:103610003430303538303133313332343830303083
:10362000313031464630313034303038332E3A3054
:103630003030303030303146462E000011241FBE6D
:10364000CFEFD0E1DEBFCDBF11E0A0E0B1E0E2EA14
:10365000F7E602C005900D92A030B107D9F724E03B
:10366000A0E0B1E001C01D92A53CB207E1F70E94C5
:10367000951D0C94CF330C9400005D9BFECF8CB94C
:1036800008950F931F93CF93DF938C018EEF0E94C9
:103690003D1BE801065F1F4F89910E943D1BC0172B
:1036A000D107D1F78DEF0E943D1BDF91CF911F9184
:1036B0000F9108959093900089B91BB88AB18869D9
:1036C0008AB9E5E9F0E0808186608083E2E0F1E09C
:1036D00022EF31E008C01192E817F907E1F7FC0189
:1036E0002817390719F0CF010C96F5CF81E08093A8
:1036F00001018FEF809300010895BC01E2E0F1E049
:1037000020E030E0A90190819E3F49F593859D3FDF
:1037100031F5F901EE0FFF1FE20FF31FEE0FFF1F50
:10372000EE0FFF1FED5FFE4FDB019B01265F3F4F5A
:1037300091919D93A217B307D9F7FA01EE0FFF1FDE
:10374000E40FF51FEE0FFF1FEE0FFF1FEE5FFE4FA2
:103750008CE0DF011D928A95E9F780E008952F5FE4
:103760003F4F3C962431310569F681E008951F9260
:103770000F920FB60F9211242F933F934F935F93A5
:103780008F939F93EF93FF932CB12E3FD9F4209109
:1037900000012F3F09F050C030910101E2E0F1E05B
:1037A00080E05EEF41E09081911103C0282F5083AB
:1037B000342F8F5F3C968431B1F720930001309312
:1037C00001013AC02D3FE1F4809100018823A4F16A
:1037D000909101019B3081F5082E000C990BFC01A2
:1037E000EE0FFF1FE80FF91FEE0FFF1FEE0FFF1F79
:1037F000EE5FFE4F8DEF83878FEF809300011CC03B
:10380000809100018823C4F0309101013B30A0F485
:10381000082E000C990BFC01EE0FFF1FE80FF91F9B
:10382000EE0FFF1FEE0FFF1FEE5FFE4FE30FF11DC8
:1038300020833F5F30930101FF91EF919F918F9122
:103840005F914F913F912F910F900FBE0F901F905E
:103850001895CF93DF93EC0185B78B7F85BF889850
:103860008998909A919A0E94F81C81E08A831B8221
:10387000DF91CF910895CF92DF92EF92FF920F9355
:103880001F93CF93DF93FC012281213009F07FC089
:103890004091C0045091C1046091C2047091C3046E
:1038A00004811581268137810417150726073707FC
:1038B00098F421E023834091C0045091C1046091A9
:1038C000C2047091C304425E5F4F6F4F7F4F4483C9
:1038D00055836683778305C0FC012381213009F07D
:1038E00056C0EC0184EA0E94031D80E00E943E1D48
:1038F0000E94831D82E397E00197F1F7000085EABB
:103900000E94031D0E945B1D082F0E945B1D182F43
:103910000E946F1D0E94831D612F70E0702B7987BC
:10392000688780E090E00E94783220E030E040ED4F
:1039300051EC0E942F3320E030EF44EB55E40E941D
:10394000D8316B017C016A877B878C879D8720E05B
:1039500030E0A9010E94443288231CF419821882A5
:1039600015C020E030E44CE955E4C701B6010E94DF
:103970002A3318162CF488E893E19983888306C0CB
:10398000C701B6010E944932798368831B82DF91A7
:10399000CF911F910F91FF90EF90DF90CF900895FE
:1039A000FC01738362830895FC0175836483089529
:1039B000FC01718360830895FC0177836683089519
:1039C000465F5F4F6F4F7F4FFC01418B528B638B84
:1039D000748B089521E0FC0181899289A389B489BF
:1039E00084179507A607B70708F020E0822F0895EF
:1039F000E1E7F0E0808181608083808180838AEFCD
:103A0000809370000895E4E7F0E0108294EA9083D8
:103A100093E307C0A2E3B7E01197F1F700009150DC
:103A200029F120812223B4F790917100987F98307A
:103A3000F9F48093730084E88093740083E3E4E7EF
:103A4000F0E007C0A2E3B7E01197F1F70000815062
:103A500089F090819923B4F790917100987F983103
:103A600059F081E0903449F480E0089582E00895AF
:103A700081E0089582E0089580E0089580937300C6
:103A800084E88093740083E3E4E7F0E007C0A2E3F6
:103A9000B7E01197F1F70000815059F09081992318
:103AA000B4F790917100987F81E0983219F480E02A
:103AB000089582E0089584EC8093740083E3E4E742
:103AC000F0E007C0A2E3B7E01197F1F700008150E2
:103AD00029F090819923B4F780917300089584E8C8
:103AE0008093740083E3E4E7F0E007C0A2E3B7E06B
:103AF0001197F1F70000815029F090819923B4F7D4
:103B000080917300089584E98093740083E3E4E76F
:103B1000F0E007C0A2E3B7E01197F1F70000815091
:103B200019F0908194FDF6CF08951092FC018DEF6D
:103B300091E00E94291C8FED93E00E9421310F2E0D
:103B4000FBE08F2EF2E09F2EF02D0F2EF1E6AF2E30
:103B5000F3E0BF2EF02D0F2EF6E7CF2EF3E0DF2E91
:103B6000F02D0F2EFBE8EF2EF3E0FF2EF02D00EAF4
:103B700013E025EB33E04AEC53E06FED73E087EFA1
:103B800092E00E94132F8BE090E00E945A1B650187
:103B90000F2EF6E7EF2EF3E0FF2EF02D0BE813E0EB
:103BA00020EA33E045EB53E06AEC73E0C4010E9485
:103BB000311E7894C2EFD1E087EF92E00E94FA2C98
:103BC0008BE092E00E94E1258BE092E00E941E20B3
:103BD00060E08BE092E00E9417218BE092E00E946F
:103BE000A8288DEF91E00E943B1CEDEFF1E0808171
:103BF00091819F838887E0CFFC01E05CFF4F4CE31D
:103C000050E0518340833A9622E030E031832083B4
:103C1000389728E532E03183208332966CE271E0F8
:103C20007183608338966AE070E0718360833296B6
:103C300051834083389731832083329624EB30E0E0
:103C40003183208338964CE251E060E070E040839D
:103C500051836283738334962CED35E03183208366
:103C600008956F927F928F929F92AF92BF92CF9260
:103C7000DF92EF92FF920F931F93CF93DF93EC01AC
:103C80005B014A0139018AB383608ABB8BB38360CD
:103C90008BBB8FEF84BBE4E6F0E08081806880839B
:103CA0008C9A1882188AFE013296CE0109961192DA
:103CB00016828E179F07D9F780E090E0FE01E80F8B
:103CC000F91F14AA01968A309105C1F7CE010E940E
:103CD000FC1D89E68093F201E3EFF1E02CEF31E087
:103CE00085E581932E173F07E1F7FE01E054FF4F72
:103CF000B182A082329691828082329671826082F5
:103D00003296118300833296F182E0823296D1821C
:103D1000C082E457F10910823196108231961082E8
:103D2000319610823196108231961082198A19A22A
:103D3000DF91CF911F910F91FF90EF90DF90CF9087
:103D4000BF90AF909F908F907F906F9008950F934A
:103D50001F93FC0181A18130A1F590819230A1F5E2
:103D600092A1911118C04091C0045091C10460917A
:103D7000C2047091C304DF01AE5BBF4F2D913C9133
:103D8000420F531F611D711D428B538B648B758BCA
:103D900091E092A319C09130B9F44091C0045091C0
:103DA000C1046091C2047091C304028913892489FB
:103DB0003589041715072607370728F412A280E073
:103DC00003C081E001C0892F1F910F9108950F93C7
:103DD0001F93FC0181A1813009F0D2C09081923003
:103DE00009F0D1C092A1911140C0AE9AA5E6B0E011
:103DF0009C9194609C9340A9A6A5B7A59C9121E0B5
:103E000030E002C0220F331F4A95E2F7292B2C9392
:103E10004091C0045091C1046091C2047091C304E8
:103E2000DF01AC5BBF4F2D913C911197420F531FA7
:103E3000611D711D428B538B648B758B91E090A338
:103E40004091C0045091C1046091C2047091C304B8
:103E500018962D913C91420F531F611D711D428F89
:103E6000538F648F758F92A38EC0913009F08BC0F1
:103E70004091C0045091C1046091C2047091C30488
:103E8000028D138D248D358D4017510762077307FE
:103E900008F44DC080A1813031F540A9A6A5B7A591
:103EA0008C9121E030E002C0220F331F4A95E2F7E7
:103EB0002095309528232C934091C0045091C10443
:103EC0006091C2047091C304DF01A25BBF4F2D91CA
:103ED0003C91420F531F611D711D428F538F648FA0
:103EE000758F10A224C040A9A6A5B7A58C9121E08A
:103EF00030E002C0220F331F4A95E2F7282B2C93A3
:103F00004091C0045091C1046091C2047091C304F7
:103F1000DF01A45BBF4F2D913C91420F531F611DE8
:103F2000711D428F538F648F758F81E080A3409104
:103F3000C0045091C1046091C2047091C30402890D
:103F40001389248935890417150726073707D0F404
:103F5000AE98A5E6B0E08C918B7F8C9330A9A6A596
:103F6000B7A52C9181E090E002C0880F991F3A9587
:103F7000E2F78095909582238C9312A280E003C093
:103F800081E001C0892F1F910F9108950F931F9316
:103F9000FC0181A18130A1F590819230A1F592A11F
:103FA000911118C04091C0045091C1046091C204A5
:103FB0007091C304DF01AA5BBF4F2D913C91420F6A
:103FC000531F611D711D428B538B648B758B91E068
:103FD00092A319C09130B9F44091C0045091C1042A
:103FE0006091C2047091C3040289138924893589C0
:103FF000041715072607370728F412A280E003C02C
:1040000081E001C0892F1F910F910895CF93DF9315
:10401000FC0124A9222379F0EC01C4960E94411BE3
:1040200020E030E0FE01E20FF31F14AA2F5F3F4FA4
:104030002A303105B9F7DF91CF9108950F931F937F
:10404000CF93DF934091BC045091BD046091BE04B6
:104050007091BF04FC0101A512A523A534A5041786
:10406000150726073707A0F4EC0182EF91E00E94C4
:10407000411B8091BC049091BD04A091BE04B091FD
:10408000BF040596A11DB11D89A79AA7ABA7BCA720
:10409000DF91CF911F910F9108958F929F92AF92D0
:1040A000BF92EF92FF920F931F934A015B01FC01B5
:1040B000EB59FF4F40E050E0BA0130813111A7C009
:1040C000FA01EE0FFF1FEE0FFF1FEE0FFF1F440F51
:1040D000551FE40FF51FE80FF91FE45AFF4F8082C8
:1040E0009182A282B3822E3F89F49B01220F331F5B
:1040F000220F331F220F331FFA01E20FF31FE80FC5
:10410000F91FE05AFF4F21E0208368C02D3F99F44A
:104110009B01220F331F220F331F220F331FFB017E
:10412000EE0FFF1FE20FF31FE80FF91FE05AFF4FDA
:1041300022E0208353C02C3F99F49B01220F331FB0
:10414000220F331F220F331FFB01EE0FFF1FE20F61
:10415000F31FE80FF91FE05AFF4F23E020833EC012
:104160002B3F99F49B01220F331F220F331F220F85
:10417000331FFB01EE0FFF1FE20FF31FE80FF91FC4
:10418000E05AFF4F24E0208329C02A3F99F49B0185
:10419000220F331F220F331F220F331FFB01EE0F9D
:1041A000FF1FE20FF31FE80FF91FE05AFF4F25E052
:1041B000208314C0293F91F49B01220F331F220F4B
:1041C000331F220F331FFB01EE0FFF1FE20FF31F00
:1041D000E80FF91FE05AFF4F26E020839B01220FD2
:1041E000331F660F771F660F771F660F771F620FEB
:1041F000731F860F971FFC01EF59FF4F1183008338
:104200003296F182E082329621E0208307C04F5F30
:104210005F4F3A964A30510509F04ECF1F910F91EA
:10422000FF90EF90BF90AF909F908F9008952F9246
:104230003F924F925F926F927F928F929F92AF9236
:10424000BF92CF92DF92EF92FF920F931F93CF9383
:10425000DF93CDB7DEB766970FB6F894DEBF0FBE1B
:10426000CDBF4091BC045091BD046091BE047091DB
:10427000BF04FC0105A116A127A130A5041715074D
:104280002607370708F0DAC07C01312C0F2EF6E63E
:104290002F2EF02D4C01F8EC8F0E911C5C0186EC5A
:1042A000A80EB11C67019AECC90ED11C3701E0ECD5
:1042B0006E0E711C2701F2EC4F0E511CC7018C537E
:1042C0009F4F9E8B8D8B2B8692E03916E1F09315D4
:1042D00030F0332069F0E1E03E1679F030C0F4E0D0
:1042E0003F16F1F03F16B0F085E03816F9F027C020
:1042F000F301008111811C869CC0F20100811181B3
:10430000F1E0FC8796C0ED89FE890081118182E091
:104310008C878FC0F50100811181F3E0FC8789C093
:10432000F40100811181F4E0FC8783C0F601008173
:104330001181F5E0FC870115110521F429C08FEFEB
:104340008C8722C04091C0045091C1046091C20486
:104350007091C304C8010E94EA1C811115C0F801C4
:1043600081818D8780818E8783818F878281888BF1
:104370008581898B84818A8B87818B8B86818C8BCD
:10438000CE010B960E94411B3394F6E03F129BCF67
:104390008701045A1F4F570180ECA80EB11C0F2E45
:1043A000FAE06F2EF02DFE0131964F010F2EFAE646
:1043B0007F2EF02D6801F8018185813011F5F4011F
:1043C000862D11928A95E9F77982F80184818A8392
:1043D00080819181228133813B832C839D838E83D5
:1043E000858196819F8388878781908599878A8731
:1043F000F7018081823018F4C4010E94411BF6014C
:104400001186065F1F4F0A151B05A1F68091BC049B
:104410009091BD04A091BE04B091BF040A96A11D65
:10442000B11DF70185A396A3A7A3B0A707C0339436
:104430004ACF0115110509F085CFF9CF66960FB661
:10444000F894DEBF0FBECDBFDF91CF911F910F91CA
:10445000FF90EF90DF90CF90BF90AF909F908F90A4
:104460007F906F905F904F903F902F900895DC0168
:10447000FC01329609961192E817F907E1F71C92B0
:1044800091961C92919793961C92939790961C925A
:10449000909751961C92AA98E5E6F0E080818F777C
:1044A0008083AE98D89AD99AA898A998AA98AB98D8
:1044B000AC98AD980895DC01462F50E04730510587
:1044C00008F0A8C0FA01EA5BFF4F0C949C330E94ED
:1044D0003722A0C08BE390E0D2969C938E93D19725
:1044E00081E0FD01EA5AFF4F9081923009F080E0AF
:1044F000D3968C93D39785E390E09F969C938E936D
:104500009E97D0961C9286C08BE390E0D2969C93A7
:104510008E93D19781E0FD01E95AFF4F908192304F
:1045200009F080E0D3968C93D39785E390E09F9633
:104530009C938E939E9781E0D0968C936BC08BE377
:1045400090E0D2969C938E93D19781E0FD01E85A3A
:10455000FF4F9081923009F080E0D3968C93D397EF
:1045600085E390E09F969C938E939E9782E0D096F1
:104570008C9350C08BE390E0D2969C938E93D1970E
:1045800081E0FD01E75AFF4F9081923009F080E011
:10459000D3968C93D39785E390E09F969C938E93CC
:1045A0009E9783E0D0968C9335C08BE390E0D296B3
:1045B0009C938E93D19781E0FD01E65AFF4F908145
:1045C000923009F080E0D3968C93D39785E390E006
:1045D0009F969C938E939E9784E0D0968C931AC05E
:1045E0008BE390E0D2969C938E93D19781E0FD016E
:1045F000E55AFF4F9081923009F080E0D3968C937A
:10460000D39785E390E09F969C938E939E9785E049
:10461000D0968C9380E00895CF92DF92EF92FF9234
:10462000CF93DF93FC01262F8181813009F44AC1A9
:10463000662309F4DAC0DF01AC52BF4F8C918111BF
:1046400072C014971D921D921D921C92139781E0C7
:1046500014968C931796CF0185519F4F1D921D92F2
:104660008A179B07D9F7DF01A551BF4F1C92809194
:10467000C0049091C104A091C204B091C304EF01A1
:10468000CB52DF4F0596A11DB11D88839983AA8364
:10469000BB83233001F128F4213049F0223089F026
:1046A00011C1253061F108F1263099F10BC1DF010C
:1046B000A752BF4FE054FF4F808191818D939C930F
:1046C00001C1DF01A752BF4FEE53FF4F808191819F
:1046D0008D939C93F7C0DF01A752BF4FEC53FF4F60
:1046E000808191818D939C93EDC0DF01A752BF4FD4
:1046F000EA53FF4F808191818D939C93E3C0DF014A
:10470000A752BF4FE853FF4F808191818D939C93B7
:10471000D9C0DF01A752BF4FE653FF4F808191817F
:104720008D939C93CFC0DF01A552BF4FEF01C551C0
:10473000DF4F40E050E0BA018D919D91480F591F25
:10474000611D711DAC17BD07B9F7689412F8769515
:104750006795579547951694D1F7DF01A053BF4F42
:104760008D919D910D90BC91A02DEF01C05BDF4F0D
:10477000C880D980EA80FB808C159D05AE05BF05F9
:1047800058F02496C880D980E12CF12CC416D506A7
:10479000E606F70608F096C0EF013BE634AB31E0E1
:1047A00035AB26ABCB2EDD24EE24FF24C7AA6D014A
:1047B000EE24FF24C0AEC92EDA2EEB2EFF24C1AEAC
:1047C00082AFBB27A72F962F852F83AF44AFCF0192
:1047D0000E940620FE01EC52FF4F10823596118296
:1047E0001082CE010E9437226DC0DF01AC52BF4F54
:1047F0008C91813009F066C08091C0049091C10411
:10480000A091C204B091C304EF01CB52DF4F4881A5
:1048100059816A817B81481759076A077B0708F02D
:1048200051C0DF01A752BF4FCD91DC912097C9F154
:10483000AF0140535F4F2E813F81ABEABAEA0E943D
:10484000A2339C0136952795369527953695279561
:10485000DA01CD90DD90ED90FC901397C20ED31E3F
:10486000E11CF11CCD92DD92ED92FC9213975B96C8
:104870008C9128813981A82FB0E0AA0FBB1FAE0F01
:10488000BF1FA552BF4F2D933C938F5F883029F0F7
:10489000DF01A551BF4F8C9304C0DF01A551BF4F6D
:1048A0001C928091C0049091C104A091C204B09167
:1048B000C304EB52FF4F0596A11DB11D8083918368
:1048C000A283B383DF91CF91FF90EF90DF90CF90E1
:1048D0000895DF92EF92FF920F931F93CF93DF9390
:1048E000DC019196CC919197C13009F0D2C02C9106
:1048F000223009F0D1C07A01D62E8C01FC01D2A160
:10490000D1114EC061890E940C23D7014C9181E0E6
:1049100090E09C0102C0220F331FDA94E2F7242BAF
:104920002C93F80133A901A8F2A9E02D208102C03F
:10493000880F991F3A95E2F780959095822380839E
:10494000AF9A8091C0049091C104A091C204B0912B
:10495000C304F801E05CFF4F20813181820F931F77
:10496000A11DB11DF801828B938BA48BB58B809117
:10497000C0049091C104A091C204B091C304E65B4D
:10498000FF4F20813181820F931FA11DB11DF801BE
:10499000828F938FA48FB58F81E080A382A37CC088
:1049A000D13009F079C060E00E940C238091C004EE
:1049B0009091C104A091C204B091C304F801428D4A
:1049C000538D648D758D84179507A607B707C0F1C1
:1049D00080A1813079F4D7012C9181E090E00D2CF9
:1049E00002C0880F991F0A94E2F7809582238C9366
:1049F00010A210C0F701208181E090E00D2C02C0D0
:104A0000880F991F0A94E2F7822B808381E0D801F6
:104A100090968C938091C0049091C104A091C2049F
:104A2000B091C304F801E65BFF4F20813181820F12
:104A3000931FA11DB11DF801828F938FA48FB58F95
:104A40008091C0049091C104A091C204B091C304AC
:104A5000F8014289538964897589481759076A079B
:104A60007B07C8F46189C8010E940C23AF98D70165
:104A70002C9181E090E002C0880F991FDA94E2F750
:104A8000809582238C93F80112A282E085A7C0E072
:104A900003C0C1E001C0CD2F8C2FDF91CF911F91BA
:104AA0000F91FF90EF90DF9008950F931F93CF9396
:104AB000DF93DC019196CC919197C13009F078C0D9
:104AC0002C91223009F077C08C01FC01D2A1D111C8
:104AD00035C0E5E6F0E0808184608083D0963C912B
:104AE000D0979E96ED91FC919F97208181E090E078
:104AF00002C0880F991F3A95E2F7822B8083519666
:104B00006C915197CD010E940C238091C00490912B
:104B1000C104A091C204B091C304F801E85BFF4F47
:104B200020813181820F931FA11DB11DF801828B5D
:104B3000938BA48BB58B81E082A33DC0D130D9F596
:104B400060E00E940C238091C0049091C104A09168
:104B5000C204B091C304F8014289538964897589FC
:104B6000481759076A077B0728F5E5E6F0E08081DA
:104B70008B7F8083D801D0963C91D0979E96ED9103
:104B8000FC919F97208181E090E002C0880F991FDF
:104B90003A95E2F7809590958223808392961C92B5
:104BA000929751966C91C8010E940C23C0E003C0FB
:104BB000C1E001C0CD2F8C2FDF91CF911F910F91BC
:104BC00008950F931F93CF93DF93CDB7DEB72A9746
:104BD0000FB6F894DEBF0FBECDBF8C01DC018C9107
:104BE000823009F0C6C093968C91823019F08430DF
:104BF00009F0BFC08091C0049091C104A091C2048B
:104C0000B091C304F801E453FF4F408151816281A8
:104C10007381481759076A077B0708F4C5C1A9C003
:104C2000F801E054FF4F0190F081E02D86819781DB
:104C30000B9708F0CBC14091C0045091C104609122
:104C4000C2047091C304F801EE53FF4F808191813B
:104C50000E94EA1C882359F0F801EE53FF4F01909F
:104C6000F081E02D868197810B9708F0C7C14091B4
:104C7000C0045091C1046091C2047091C304F80152
:104C8000EC53FF4F808191810E94EA1C882359F0E8
:104C9000F801EC53FF4F0190F081E02D8681978160
:104CA0000B9708F0C2C14091C0045091C1046091BB
:104CB000C2047091C304F801EA53FF4F80819181CF
:104CC0000E94EA1C882359F0F801EA53FF4F019033
:104CD000F081E02D868197810B9708F0BEC140914D
:104CE000C0045091C1046091C2047091C304F801E2
:104CF000E853FF4F808191810E94EA1C882359F07C
:104D0000F801E853FF4F0190F081E02D86819781F3
:104D10000B9708F0BAC14091C0045091C104609152
:104D2000C2047091C304F801E653FF4F8081918162
:104D30000E94EA1C882359F0F801E653FF4F0190C6
:104D4000F081E02D868197810B9708F0B6C18091A4
:104D5000C0049091C104A091C204B091C304F801B1
:104D6000E453FF4FCC96A11DB11D80839183A28394
:104D7000B383F8018081E2EFF1E08183D80151969D
:104D80008C915197848393968C9193978583909679
:104D90008C91909786838C91813061F493968C935B
:104DA000939751961C92C8010E94FC1D82E0F80165
:104DB000808303C0823009F0C0C1D80151966C9144
:104DC0005197611192C193962C91F801339681E02D
:104DD0009191921303C0F801818B04C08F5F8730DB
:104DE000B9F789C1D80193968C9193978230B9F421
:104DF00094968C91813099F4F80113A212A211A219
:104E00003296C801099611928E179F07E1F7D801D3
:104E10001C9251961C92519794961C928EC1F80147
:104E20006189662309F489C1F801E60FF11D9281B9
:104E3000D80193968C91981380C1C8010E945B227F
:104E4000F80183A18130B9F460A946A557A5C8012E
:104E50000E946924811171C1D80151968C9151979A
:104E6000F801E80FF11D93968C9193978F5F8283E1
:104E700051961C9262C18230E9F4F801818181115E
:104E80005CC160A946A557A5C8010E94A71E811153
:104E900054C1F8019801295F3F4F8281882311F0A6
:104EA0008F5F82833196E217F307B9F7D8015196E5
:104EB0001C9243C18330C1F4F80160A946A557A5EF
:104EC000C8010E94E71E811138C1D80151968C910A
:104ED0005197F801E80FF11D93968C9193978F5F8E
:104EE000828351961C9229C18430E9F4F8018181B2
:104EF000811123C160A946A557A5C8010E94C61FFC
:104F000081111BC1F8019801295F3F4F82818823DD
:104F100011F08F5F828331962E173F07B9F7D801C2
:104F200051961C920AC18530C1F4F80160A946A5CA
:104F300057A5C8010E9455258111FFC0D80151967F
:104F40008C915197F801E80FF11D93968C919397EE
:104F50008F5F828351961C92F0C0863009F0EDC0BD
:104F6000D89AD99AF80113A212A211A2FE01319681
:104F70008AE0DF011D928A95E9F78CE68983DE01DC
:104F80001296F80132969E01275F3F4F80818D93E4
:104F900011922A173B07D1F7CE0101960E94411BBF
:104FA000F8011082118AC9C04091C0045091C10417
:104FB0006091C2047091C304F801E054FF4F8081F6
:104FC00091810E94EA1C81112BCE35CE8BE6D8014F
:104FD000D4968C93D49782E0D5968C93D59781E024
:104FE000D6968C93D6978781D7968C93D7978681C0
:104FF000D8968C93C8010E9406201DCE8BE6D8015E
:10500000D4968C93D49782E0D5968C93D597D696E8
:105010008C93D6978781D7968C93D7978681D8968D
:105020008C93C8010E94062022CE8BE6D801D4962C
:105030008C93D49782E0D5968C93D59783E0D696BF
:105040008C93D6978781D7968C93D7978681D8965D
:105050008C93C8010E94062026CE8BE6D801D496F8
:105060008C93D49782E0D5968C93D59784E0D6968E
:105070008C93D6978781D7968C93D7978681D8962D
:105080008C93C8010E9406202ACE8BE6D801D496C4
:105090008C93D49782E0D5968C93D59785E0D6965D
:1050A0008C93D6978781D7968C93D7978681D896FD
:1050B0008C93C8010E9406202ECE8BE6D801D49690
:1050C0008C93D49782E0D5968C93D59786E0D6962C
:1050D0008C93D6978781D7968C93D7978681D896CD
:1050E0008C93C8010E94062032CEF80183A1823041
:1050F00009F09ACE1DC02F5FD80193962C93809112
:10510000C0049091C104A091C204B091C304F801FD
:10511000E453FF4F4496A11DB11D80839183A28368
:10512000B383F80111825ECED80151966C917CCE8A
:10513000F80184A18130C1F75FCE2A960FB6F894AA
:10514000DEBF0FBECDBFDF91CF911F910F910895AC
:10515000EF92FF920F931F93CF93DF93CDB7DEB7FC
:105160002C970FB6F894DEBF0FBECDBF8C01CE01D9
:1051700001962CE0FC0111922A95E9F70E947D1B13
:1051800081110BC1E2EFF1E082818F5F828389811F
:10519000813089F5F80180818111FFC08A8190E01A
:1051A000A0E0B0E0782F6627552744278B8190E058
:1051B000A0E0B0E0DC0199278827840F951FA61F87
:1051C000B71F2D81820F911DA11DB11D4C8150E093
:1051D00060E070E0762F652F542F4427840F951FD1
:1051E000A61FB71F8093C0049093C104A093C2046C
:1051F000B093C304D2C0823009F078C08A8190E0B5
:10520000FC013197E730F10508F0C7C0E35BFF4FC1
:105210000C949C3392B380E1892782BB8B8190E010
:10522000F801E80FF91F21E022832A81243031F4AC
:10523000F801E80FF91F21E0218704C0F801E80F09
:10524000F91F1186F80180818111A7C081E0808358
:10525000A4C0F8013296C80109961192E817F9071F
:10526000E1F7F8011082C8010E94372296C081E060
:10527000F801868F8B81878F90C0F8018081811122
:105280008CC092B380E1892782BB8B8183838C8120
:1052900084838D8185838E8186838F8187838885B2
:1052A0008087898584A381E081A3808376C061E0C3
:1052B00080E090E00E94B83398E088E10FB6F8945F
:1052C000A89581BD0FBE91BDFFCF92B380E1892724
:1052D00082BB81E0F801838384838583868387830F
:1052E000808784A381A38083818357C0833009F0A2
:1052F0003EC0F8018081811150C06A8170E0762F34
:1053000066278B81682BE05CFF4F71836083780197
:10531000F4E4EF0EF11C8C8190E0982F88272D810A
:10532000822BF70191838083085B1F4F8E8190E071
:10533000982F88272F81822BF8019183808382E028
:1053400090E00E94C933F7016081718186E090E0AE
:105350000E94C933F801608171818AE090E00E9467
:10536000C93365E581E090E00E94B83316C085300E
:10537000A1F4F801EA5AFF4F8A81808331968B812C
:10538000808331968C81808331968D8180833196A4
:105390008E81808331968F8180832C960FB6F8940E
:1053A000DEBF0FBECDBFDF91CF911F910F91FF9058
:1053B000EF9008950F931F93CF93DF93FC0190918B
:1053C000B104992329F08091E103882309F444C0B2
:1053D00081E08093B0040091B6041091B70420914D
:1053E000B8043091B9040E5F1F4F2F4F3F4F009309
:1053F000B2041093B3042093B4043093B5041B9A01
:105400008091E103882369F08489882351F0FB01AE
:1054100090819C3209F120E0EBE9F0E0CCE9D0E0AA
:1054200010C0DB01645F7F4FEBE9F0E0CCE9D0E036
:10543000808185FFFDCF8D9188836A177B07C1F737
:105440000BC0808185FFFDCF98832F5FDB01A20F0A
:10545000B11D9C919C32A9F7DF91CF911F910F91C3
:1054600008950F931F93CF93DF93EC01FC017A967D
:105470008CE0DF011D928A95E9F78C89811159C072
:105480008091B6049091B704A091B804B091B9048A
:10549000863F9F4FAF4FBF4F09F04EC06DC0809108
:1054A000B6049091B704A091B804B091B9048417E0
:1054B0009507A607B70798F39AC08091E00381305B
:1054C00009F05AC08091B6049091B704A091B80435
:1054D000B091B904FE01E25AFF4F408151816281CF
:1054E0007381481759076A077B0708F44BC044C00B
:1054F0008EA19FA1FC01E652FF4F24912E3209F4A8
:1055000056C04A175B0709F04CC051C08AA58033CA
:1055100029F48C898F5F8C8B1FA21EA28091E003DF
:10552000853009F064C01092E1031092E0031C8AF8
:105530005EC0813009F5C1CF1092E0036A8F8EE022
:105540008B8F85E58DA3BF01CE010E94DA2981E012
:105550008C8B4091B6045091B7046091B80470915F
:10556000B904415F5F4F6F4F7F4FCE59DF4F488384
:1055700059836A837B8393CF1092E1031092E003F7
:105580001C8A35C08E01085D1F4F42E350E06CE27B
:1055900070E0C8010E94B133D801AE01465A5F4F96
:1055A000A7CFE491ED9301969FA38EA3A1CFB8015D
:1055B000CE010E94DA298EA19FA101969FA38EA3FE
:1055C0008091B6049091B704A091B804B091B90449
:1055D000FE01E25AFF4F0196A11DB11D8083918308
:1055E000A283B38389A5803309F098CF8FCFDF9151
:1055F000CF911F910F9108952F923F924F925F92FA
:105600006F927F928F929F92AF92BF92CF92DF92D2
:10561000EF92FF920F931F93CF93DF9300D000D0B0
:10562000CDB7DEB75C01C12CD12C612C712C4601A9
:10563000F601EE0FFF1FEC0DFD1DEE0FFF1FEE0F2D
:10564000FF1FED51FC4F8081882309F461C1F601F1
:10565000EE0FFF1FEC0DFD1DEE0FFF1FEE0FFF1FE6
:10566000ED51FC4F8385853509F052C15AC1F501D2
:1056700003811481F401EE0FFF1FE80DF91DEE0FF9
:10568000FF1FEE0FFF1FED51FC4F80818D3F19F47E
:10569000F50105811681F401EE0FFF1FE80DF91DDC
:1056A000EE0FFF1FEE0FFF1FED51FC4F80818C3F6F
:1056B00019F4F50107811085F401EE0FFF1FE80DC5
:1056C000F91DEE0FFF1FEE0FFF1FED51FC4F808104
:1056D0008B3F19F4F50101851285F401EE0FFF1FD0
:1056E000E80DF91DEE0FFF1FEE0FFF1FED51FC4FF0
:1056F00080818A3F19F4F50103851485F401EE0FCA
:10570000FF1FE80DF91DEE0FFF1FEE0FFF1FED51FC
:10571000FC4F8081893F19F4F50105851685F40158
:10572000EE0FFF1FE80DF91DEE0FFF1FEE0FFF1F1D
:10573000ED51FC4F80818F3F09F4D5C00115110553
:1057400009F4D1C0F401EE0FFF1FE80DF91DEE0FB3
:10575000FF1FEE0FFF1FED51FC4F8181883009F4D0
:1057600048C0893009F466C0853009F0BCC0F40136
:10577000EE0FFF1FE80DF91DEE0FFF1FEE0FFF1FCD
:10578000ED51FC4F6281838154803580E6804780F3
:10579000F084218470E0762F6627680F711DC801A0
:1057A0000E94D81C652D70E0762F6627630D711D51
:1057B000C8010E94D01C6E2D70E0762F6627640D04
:1057C000711DC8010E94D41C6F2D70E0762F6627D2
:1057D000620D711DC8010E94DC1C4091C0045091F3
:1057E000C1046091C2047091C304C8010E94E01C0E
:1057F0007AC0F401EE0FFF1FE80DF91DEE0FFF1F39
:10580000EE0FFF1FED51FC4F8281238190E0982F16
:105810008827820F911DF801918780874091C004ED
:105820005091C1046091C2047091C304C8010E94E8
:10583000E01C59C0F401EE0FFF1FE80DF91DEE0F3B
:10584000FF1FEE0FFF1FED51FC4F2280838134813B
:105850004581208156819781052F10E0102F002768
:10586000090F111DE084918501151105E1F1F12C5D
:10587000FE2CEE24E90EF11CE114F104A1F1312C0F
:10588000412C512C522C44243324222490E0A0E0BB
:10589000B0E0DC0199278827820D931DA41DB51D5A
:1058A000840F911DA11DB11D432F50E060E070E0F9
:1058B000762F652F542F44271C012D01240E351EF1
:1058C000461E571EB201A101F501878590890E94ED
:1058D0004D2059824A823B822C82BE016F5F7F4FEE
:1058E000C5010E94DA2980E090E09401220F331F65
:1058F000280D391D220F331F220F331F2D513C4F0E
:10590000F901E80FF91F108201968C309105C1F75B
:10591000FFEFCF1ADF0A80E1C816D10409F087CE65
:1059200012C0F601EE0FFF1FEC0DFD1DEE0FFF1F65
:10593000EE0FFF1FED51FC4F80818E3F09F497CE93
:10594000062D172D97CE0F900F900F900F90DF918F
:10595000CF911F910F91FF90EF90DF90CF90BF906C
:10596000AF909F908F907F906F905F904F903F90FF
:105970002F9008958091B10481113BC08091E10383
:105980008823D9F00895808185FFFDCF85E5809338
:105990009C008091B6049091B704A091B804B09196
:1059A000B9040296A11DB11D8093B2049093B30473
:1059B000A093B404B093B504089581E08093B0043B
:1059C0008091B6049091B704A091B804B091B90445
:1059D0000296A11DB11D8093B2049093B304A093CD
:1059E000B404B093B5041B9A60939C00EBE9F0E01B
:1059F000CACF0895CF93DF93EC018091B6049091C4
:105A0000B704A091B804B091B904FE01E65AFF4F63
:105A10004081518162817381481759076A077B076A
:105A200008F027C18091E103882309F468C121C1EE
:105A3000EB81FC8182858A8FCE010E94DA2904C124
:105A4000EB81FC816285CE010E94BA2CFDC0ED8104
:105A5000FE8182858A8FCE010E94DA29F5C0ED8110
:105A6000FE816285CE010E94BA2CEEC0EF81F885DE
:105A700082858A8FCE010E94DA29E6C0EF81F885FF
:105A80006285CE010E94BA2CDFC0E985FA85828545
:105A90008A8FCE010E94DA29D7C0E985FA8562850E
:105AA000CE010E94BA2CD0C0EB85FC8582858A8FFE
:105AB000CE010E94DA29C8C0EB85FC856285CE0143
:105AC0000E94BA2CC1C0ED85FE8582858A8FCE01E9
:105AD0000E94DA29B9C0ED85FE856285CE010E945B
