:100000000C94F71A0C94091B0C94091B0C94091BF3
:100010000C94091B0C94091B0C94091B0C94091BD0
:100020000C94091B0C94091B0C94091B0C94091BC0
:100030000C94B11E0C94091B0C94091B0C943D1DCF
:100040000C94091B0C94091B0C94081F0C94091B9D
:100050000C94091B0C94091B0C94091B0C94091B90
:100060000C94091B0C94091B0C94091B0C94091B80
:100070000C94091B0C94091B0C94AE1D0C94091BC9
:100080000C94091B0C94091B0C94091B3A31303059
:1000900030303030303242433034354330464343E1
:1000A00035343343303746433834314330323643C6
:1000B000363346433030392E3A31303030313030FB
:1000C000303345433033444330334343304142437C
:1000D0003733414330343343383338433033374395
:1000E0003038332E3A3130303032303030333643DE
:1000F000304142433833344330364143333746434B
:100100003344374333313043343136433442432E62
:100110003A31303030333030304530433544464367
:100120003544454335313943343341433443414306
:1001300034353243353546433533302E3A3130305D
:100140003034303030363743354339433538314336
:1001500035383343353837433538424335393343FF
:10016000353937433531382E3A313030303530304B
:1001700030394243354133433541424335423343BD
:1001800035313132343146424543464535443445B4
:100190003037362E3A313030303630303044454208
:1001A0004643444246313045304130453642304581
:1001B0003045344535463345313032433030322EC8
:1001C0003A313030303730303030353930304439F2
:1001D0003241433336423130374439463732314584
:1001E00030414345364230453042462E3A31303078
:1001F00030383030303031433031443932413933A6
:100200003742323037453146374346443036314342
:10021000394238434633462E3A3130303039303067
:10022000303345394138364231383636383836423F
:100230003933363941383442313935423138304535
:100240003137382E3A31303030413030304530455A
:1002500041463045304446303139383246314439F0
:100260003239413935453946374532454338332EE1
:100270003A3130303042303030463045304446300C
:1002800031393832463144393239413935453946C8
:1002900037453245454630453036422E3A313030CA
:1002A00030433030304446303131443932384139CE
:1002B00035453946373130393230323031313039E5
:1002C000324331303039412E3A31303030443030E1
:1002D00030313039324330303030383935383742C8
:1002E0003138323746383742393339394138324577
:1002F0003337302E3A3130303045303030393745B1
:100300003030313937463146373030303033363996
:100310004133363939464543463830393139432E31
:100320003A31303030463030304331303032344280
:100330003133354231453832464630453045453017
:1003400046464631464545353134332E3A31303014
:10035000313030303046463446333138333230383D
:100360003338463546383033313139463038303914
:10037000334331303043452E3A3130303131303033
:10038000303032433031303932433130304532450C
:1003900045463045303432453035314530383045CA
:1003A0003036372E3A313030313230303039304516
:1003B00030444330313231393133313931383230F0
:1003C0004639333146413131444231314433462E8E
:1003D0003A313030313330303045343137463530D2
:1003E0003742394637363839343133463842363970
:1003F00035413739353937393535452E3A31303091
:10040000313430303038373935313639344431468B
:100410003730383935383742313831374638374256
:10042000393338394133412E3A313030313530307B
:100430003038324533393745303031393746314637
:100440003730303030333639413336393946454329
:100450004644372E3A31303031363030303830394A
:100460003143303030323442313335423145383225
:100470004646304530454530464646314630312EB9
:100480003A313030313730303045453533464634F7
:1004900046333138333230383338463546383033E6
:1004A00031313946303830393344452E3A313030E5
:1004B0003138303030433030303032433031303901
:1004C0003243303030453245434630453034324592
:1004D000453530453038442E3A31303031393030BE
:1004E000303830453039304530444330313231399D
:1004F0003133313931383230463933314641313197
:100500004433442E3A313030314130303042313191
:100510004445343137463530374239463736383935
:100520003431334638423639354137393534432E44
:100530003A31303031423030303937393538373967
:100540003531363934443146373038393538374229
:1005500031383037463837423937312E3A3130303A
:100560003143303030383245333937453030313926
:10057000374631463730303030333639413336390B
:10058000394645434636372E3A31303031443030E3
:100590003038303931303230313234423133354213
:1005A000314538324646304530454530464646317D
:1005B0004634452E3A3130303145303030453035D3
:1005C00036464634463331383332303833384635A0
:1005D0004638303331313946303830393337392EB7
:1005E0003A313030314630303030323031303243D1
:1005F0003031303932303230314530454146304586
:1006000030343045433530453039462E3A3130307C
:100610003230303030383045303930453044433076
:100620003132313931333139313832304639333181
:10063000464131314443432E3A313030323130304B
:10064000304231314445343137463530374239460E
:10065000373638393431334638423639354137390F
:100660003544422E3A313030323230303039373939
:100670003538373935313639344431463730383901
:100680003543463933444639333030443044332ED1
:100690003A313030323330303030304430434442FD
:1006A0003744454237304642364638393441383986
:1006B00035383142353838363132382E3A313030EB
:1006C00032343030303831424431314243304642A6
:1006D0004541303938413139384132393832314485
:1006E000463842393830382E3A31303032353030B1
:1006F0003038354237383436303835424638424261
:10070000373830363838424246384539413846392C
:100710004137352E3A313030323630303039363993
:100720004139373941384542353838363038454215
:100730004438454235383436303845424434352E15
:100740003A31303032373030303845453739364538
:1007500031394242443841424438394237383036E0
:1007600031383942463830453032412E3A31303016
:10077000323830303039304530333444383845330E
:1007800030394634303039463046364330383245D9
:10079000303930453044342E3A313030323930300F
:1007A00030323044383830393336383030384145DB
:1007B00031393045303233443836303933383530DA
:1007C0003039442E3A3130303241303030373039E0
:1007D00033383630303830393338373030393039D3
:1007E0003338383030383345303930453041442E95
:1007F0003A313030324230303031304438383938A4
:100800003338303933363730303834453039304585
:1008100030304144383830393330372E3A31303087
:100820003243303030363630303835453039304567
:100830003030354438393045303930393336353059
:10084000303830393330422E3A3130303244303063
:10085000303634303038364530393045304644440F
:100860003738303933363330303837453039304522
:100870003043332E3A313030324530303046384410
:100880003738303933363230303836453139304503
:100890003030304438393039333631303039372E12
:1008A0003A3130303246303030383039333630300B
:1008B00030383845313930453045434437303832A7
:1008C00045303030433939304230392E3A313030CA
:1008D00033303030303930393338343030383039E3
:1008E000333833303038394531393045304532448A
:1008F000373038324545372E3A31303033313030A9
:100900003030303043393930423930393338323091
:100910003038303933383130303838453039304577
:100920003031432E3A313030333230303044384475
:100930003738303933383030303339383133323377
:100940003033384630383145303830393344332E3F
:100950003A3130303333303030363730303631455D
:1009600030383345303930453044454437383039F4
:1009700031363630303831353034352E3A3130304A
:1009800033343030303838334331384630383145FD
:10099000303830393336363030383039313634301B
:1009A000303930393137312E3A313030333530301B
:1009B00030363530303030393731394630384633DB
:1009C000463931303533314634383845323930459F
:1009D0003033352E3A3130303336303030393039EB
:1009E00033363530303830393336343030383039CA
:1009F0003136333030384135303842333538302EA7
:100A00003A31303033373030303138463038324593
:100A1000333830393336333030383039313632309C
:100A200030384135303842333538442E3A31303061
:100A3000333830303031384630383145333830395A
:100A40003336323030383039313630303039303971
:100A5000313631303039392E3A3130303339303067
:100A60003030413937384633443933343033304607
:100A70003038384535393145303930393336313011
:100A80003039422E3A31303033413030303830391D
:100A9000333630303038303931383330303930391E
:100AA0003138343030384335393946344643452EB1
:100AB0003A313030334230303038393343393130E5
:100AC00035323046303130393238343030313039E7
:100AD00032383330303830393137362E3A313030E1
:100AE00033433030303833303039303931383430C6
:100AF0003039433031323230463333314638383092
:100B0000463939314639362E3A3130303344303077
:100B1000303838304639393146383830463939314D
:100B2000463832304639333146393039333834304B
:100B30003039352E3A313030334530303038303975
:100B4000333833303038303931383130303930396A
:100B50003138323030384335393946344636462E0E
:100B60003A31303033463030303839334339313030
:100B70003532304630313039323832303031303938
:100B800032383130303830393133412E3A3130302B
:100B9000343030303038313030393039313832302B
:100BA00030394330313232304633333146383830E1
:100BB000463939314635392E3A31303034313030DA
:100BC000303838304639393146383830463939319D
:100BD000463832304639333146393039333832309D
:100BE0003035362E3A3130303432303030383039DA
:100BF000333831303046383934383039313638309E
:100C00003035434436383045303930453033312E75
:100C10003A31303034333030303743443537383977
:100C20003443313243304632454638453145463209
:100C300045463145304646324534312E3A31303022
:100C40003434303030463032443046324546354513
:100C500030394632454630324430463245463545D5
:100C6000354146324539462E3A3130303435303010
:100C700030463032443044453631314530304632EA
:100C8000454643453042463245463032444444327C
:100C90003437372E3A31303034363030304433390F
:100CA0003430463245463945303846324546303292
:100CB0004430463245463445393246324542452E67
:100CC0003A313030343730303046314531334632C6
:100CD000454630324445314330423045324239385E
:100CE00033394544454539383143422E3A31303065
:100CF000343830303045313530453938334531318D
:100D0000314641434639384445383039333830303C
:100D1000303638324637342E3A313030343930308C
:100D20003038384530393045303330443736464531
:100D30004638324530393045303243443734304517
:100D40003032412E3A313030344130303035304558
:100D50003042413031384145313930453033374404
:100D60003736304530383345303930453036352E1A
:100D70003A31303034423030303232443736334515
:100D800030383445303930453031454437363845D0
:100D900032383545303930453031382E3A313030FF
:100DA00034433030303141443736324533383645BC
:100DB00030393045303136443736314533383745B0
:100DC000303930453031382E3A31303034443030DB
:100DD000303132443736384535373145303836458D
:100DE0003139304530323644373630453038384581
:100DF0003131382E3A3130303445303030393045A9
:100E0000303039443736304530383945313930455E
:100E10003030354437364545303746453031392E48
:100E20003A31303034463030303830453039304562
:100E300030313944374637454332464533333245FE
:100E400030463135303230343039342E3A3130306A
:100E50003530303030333034304531463730304340
:100E6000303030303039384530383845313046420E
:100E7000364638393442312E3A313030353130301F
:100E800030413839353831424430464245393142B3
:100E9000444646434638324530433831364231467F
:100EA0003139352E3A313030353230303039334502
:100EB00030433931363039463435344330413145A9
:100EC0003043413132383543303435444541332E97
:100ED0003A313030353330303039303933393030E1
:100EE00030383039333846303032303931363730B7
:100EF00030323131313744433044462E3A3130308C
:100F000035343030303230393138303030333045AC
:100F1000303832313739333037423046304443305D
:100F2000314132314246442E3A313030353530305D
:100F30003042333042323039313634303033303968
:100F40003136353030414644363241453033304514
:100F50003030332E3A313030353630303034304561
:100F60003035304530383844363235333942314502
:100F70003133423037353046343330393341342E13
:100F80003A31303035373030303930303032303936
:100F90003338463030363143303130393239303001
:100FA00030313039323846303032352E3A31303007
:100FB00035383030303543433033303932393030E2
:100FC000303230393238463030353743304444449B
:100FD000443930393343382E3A31303035393030B6
:100FE00030384330303830393338423030323039AD
:100FF0003136373030323131313445433041303998
:101000003141382E3A31303035413030303633309E
:101010003039433031423045303839443632303956
:101020003138333030333039313834303045332E85
:101030003A31303035423030303632304637333165
:101040004637303933384330303630393338423030
:1010500030363133313737343245302E3A31303053
:101060003543303030453046313230453133374505
:10107000323330393338433030323039333842301C
:10108000303335433042452E3A31303035443030FC
:1010900030383244443930393338413030383039DF
:1010A00033383930303835333833334530393330ED
:1010B0003730392E3A3130303545303030323846DD
:1010C00030313039323841303031303932383930DE
:1010D0003032374330323039313637303039442EC0
:1010E0003A313030354630303032313131323343BD
:1010F000303030393730394631413039313632309D
:1011000030394330314230453039352E3A31303084
:10111000363030303035434436444330314342304A
:101120003138383542394134364131303942313045
:10113000393230393133372E3A3130303631303080
:101140003038313030333039313832303042393064
:101150003136383046373931463730393338413017
:101160003043302E3A31303036323030303630394C
:10117000333839303036313337373734313430461D
:101180003041304537423745314230393336432ECE
:101190003A31303036333030303841303041303908
:1011A00033383930303031433043313243433339CF
:1011B00034383039313944303043312E3A313030DF
:1011C00036343030303831313134434330463039C1
:1011D00031363830304437303146433933313139A4
:1011E000363943393245372E3A31303036353030A2
:1011F0003031313937373039313846303045303990
:101200003139303030313239364543393331323982
:101210003739312E3A31303036363030303133399B
:101220003637433933313339373530393138423055
:101230003036303931384330303134393639352E63
:101240003A31303036373030303643393331343953
:10125000373135393635433933313539373330392C
:1012600031383930303430393136462E3A31303039
:101270003638303030384130303136393634433911
:1012800033313639373137393633433933313739FA
:10129000373930393135442E3A3130303639303003
:1012A000303931303032303931393230303138390B
:1012B00036324339333138393731393936394339B0
:1012C0003338432E3A3130303641303030313939CD
:1012D00037383039313637303031413936384339A3
:1012E0003341354535423145304643393341392E56
:1012F0003A313030364230303039303932353630AC
:10130000314530393335373031373039333538308E
:1013100031363039333539303134442E3A3130308A
:10132000364330303035303933354130313430396F
:10133000333542303133303933354330313230395F
:10134000333544303138432E3A3130303644303042
:10135000303930393335453031383039333546302E
:10136000314130393236303031463830313730382B
:101370003041392E3A31303036453030303830391E
:1013800031363830303738313231394346383138F8
:101390003139304530384633303931303535382EF3
:1013A0003A313030364630303030384630374643C8
:1013B0003246433031454435454646344630393966
:1013C00034383039313731303030432E3A313030E3
:1013D00037303030303831333037314634363039C9
:1013E0003136463031383245303930453046344474
:1013F000353938453035462E3A3130303731303096
:10140000303838453130464236463839344138393B
:1014100035383142443046424539314244464643EC
:101420004642422E3A313030373230303043313953
:101430004138334532384342393635433238303912
:101440003137313030383133303039463037312E62
:101450003A31303037333030303530433044383043
:10146000313132393633433931313239373333332D
:1014700030303846303439433034452E3A3130300C
:101480003734303030313339363243393131333912
:1014900037323833323038463034334330313639EE
:1014A000363443393042432E3A31303037353030DC
:1014B00030313639373531324336313243373132D4
:1014C000433736324336353243353432433434329F
:1014D0003432412E3A3130303736303030313739CE
:1014E000363443393138343246393045304130456D
:1014F0003042304530343039313844303036452E82
:101500003A31303037373030303530393138453096
:101510003036304530373045304241303135353264
:1015200037343432373434323936422E3A3130306F
:101530003738303030353532393636323937373260
:10154000393438324235393242364132423742320A
:10155000424638303139312E3A3130303739303037
:1015600030463438314639383346463233373146DF
:1015700030463830314635383146413833464632C8
:101580003344372E3A3130303741303030343946F9
:1015900030423330314132303145393831374532DC
:1015A0004234383242353932423641324231412EAC
:1015B0003A313030374230303037423242364632BC
:1015C0004238323246393045304638453233463972
:1015D00046383030443931314445352E3A31303097
:1015E00037433030303131323438383046393931A0
:1015F0004638383046393931463830354539463441
:10160000464134443531312E3A3130303744303070
:101610003031304332433139413833453238434237
:10162000393043433244383031313239363243393C
:101630003133362E3A31303037453030303132396F
:101640003732333330383046353133393638433931
:101650003138383332363046353930453035332E2F
:101660003A31303037463030304238453232423904
:101670004638303044393131443131323438383001
:1016800046393931463838304633462E3A313030D3
:1016900038303030303939314638303545394634D4
:1016A00046364444353230393139443030323133C2
:1016B000304531463341462E3A31303038313030C2
:1016C000304430393239443030453545354631457E
:1016D000303542324331313932354139344539467A
:1016E0003734362E3A3130303832303030413545AB
:1016F000354231453037433932373039323536307B
:101700003139303933353730313830393342382E8A
:101710003A31303038333030303538303137303995
:101720003335393031363039333541303141303964
:1017300032363030314331394143362E3A31303050
:101740003834303030384339313843423944364305
:1017500031433139413833453238434239443243D9
:10176000313644324437442E3A3130303835303017
:1017700030383345303930453035304435443039F0
:1017800032363730304342433136304530383345D6
:101790003041382E3A3130303836303030393045FB
:1017A00030343944353130393236373030433443D0
:1017B0003138303931394430303831333030442EDB
:1017C0003A313030383730303045314633443039B3
:1017D0003239443030453545354631453035423271
:1017E00043313139323541393446322E3A31303095
:1017F0003838303030453946374135453542314546
:10180000303743393242384530423039333536305B
:10181000313830393131432E3A3130303839303087
:10182000303639303039303931364130303930396D
:10183000333537303138303933353830314130395C
:101840003234422E3A313030384130303036303058
:1018500031433139414535453546314530383038E9
:101860003138434239413243314438303136462EE3
:101870003A31303038423030303132393632433913
:1018800031313239373133393638433931393045EE
:1018900030413045304230453045342E3A313030D9
:1018A00038433030304443303139393237383832C8
:1018B00037423232424638303132353831383232BE
:1018C000423234383130452E3A31303038443030BD
:1018D00030393232423830393336443030393039A9
:1018E0003336453030413039333646303042303986
:1018F0003336352E3A3130303845303030373030AD
:101900003038303931394430303831333045314670
:101910003344303932394430304135453544432E33
:101920003A3130303846303030423145304542323D
:1019300044314439324541393545394637413545D9
:1019400035423145303743393231382E3A31303033
:101950003930303030383039323536303141434526
:1019600030423145304536453346314530323045D9
:10197000303330453042372E3A3130303931303023
:1019800030334338333242383334443931354439D3
:1019900031364439313744393134313135353130EC
:1019A0003545362E3A3130303932303030363130FC
:1019B00035373130354231463139303831393133CC
:1019C0003039394635433930313730393331432EA8
:1019D0003A313030393330303035373031363039D4
:1019E00033353830313530393335393031343039B9
:1019F00033354130314639303141452E3A3130307E
:101A0000393430303045453046464631464446301C
:101A1000314135354342453446324339313131392C
:101A2000363343393136442E3A313030393530305F
:101A30003031313937333039333542303132303962
:101A400033354330314543354646453446323038E8
:101A50003138372E3A313030393630303033313852
:101A60003133303933354430313230393335453024
:101A70003131313832313038324643303138302E1E
:101A80003A313030393730303045453046464631CE
:101A9000464545304646463146453435464645344A
:101AA00046313038323131383238432E3A313030E5
:101AB00039383030303132383231333832314439DC
:101AC000323143393246433031454135434645345E
:101AD000463130383242462E3A31303039393030A2
:101AE0003030374330324635463346344633313969
:101AF0003632333330333130353039463042384383
:101B00004641342E3A31303039413030304130396D
:101B1000323630303143313941453545354631452E
:101B20003038303831384342393830393136372E51
:101B30003A31303039423030303644303039303953
:101B40003136453030413039313646303042303927
:101B500031373030303830393344372E3A31303045
:101B6000394330303037433030393039333744300F
:101B700030413039333745303042303933374630F1
:101B8000303131433143362E3A3130303944303000
:101B90003038303931373130303831333030394600
:101BA00030304343314438303131323936384339BB
:101BB0003138302E3A3130303945303030313239E9
:101BC00037383131313036433031333936364339B5
:101BD0003138324530393045303833443433372E9C
:101BE0003A313030394630303030304331383133AB
:101BF0003034394634463830313633383136323382
:101C000030303846304639433032382E3A31303071
:101C10004130303030383345303930453037384452
:101C20003446354330383233303631463444383038
:101C3000313133393638392E3A3130304131303064
:101C400030364339313845454638363046383233F8
:101C500036303846304542433038344530393045E7
:101C60003039382E3A31303041323030303641441C
:101C700034453743303833333035394634463830DD
:101C80003136333831384645463836304646312EBF
:101C90003A313030413330303038453346303846D1
:101CA000304445433038354530393045303544448B
:101CB00034444143303834333046462E3A313030A4
:101CC00041343030303631463444383031313339B4
:101CD000363643393138354546383630463839336B
:101CE000353038463031332E3A31303041353030AE
:101CF000304430433038364530393045303446444E
:101D00003443434330383533303539463446383040
:101D10003138362E3A313030413630303036333883
:101D2000313835454638363046383933353038461F
:101D30003043334330383745303930453038392E29
:101D40003A31303041373030303432443442464317
:101D5000303836333037394634443830313133391E
:101D600036364339313133393739352E3A3130301F
:101D700041383030303730453037363246363632FB
:101D800037313439363843393136383046373131E6
:101D9000443836453142312E3A31303041393030D5
:101DA000303930453034414434414543303837339D
:101DB00030353946344638303136333831383345AA
:101DC0003631302E3A3130304141303030383630D3
:101DD000463837334330384630413543303838455C
:101DE0003139304530323444344131433035462E78
:101DF0003A31303041423030303838333036314685
:101E0000344438303131333936364339313833455B
:101E100036383630463837334345392E3A3130304C
:101E20004143303030303846303937433038394527
:101E30003139304530313644343933433038393331
:101E4000303039463030452E3A3130304144303030
:101E50003039304330463830313633383136303926
:101E600033383030303838453039304530304244FE
:101E70003442462E3A3130304145303030383843E4
:101E800030363045303730453038304530393045E0
:101E90003031454434393845303838453138422EB0
:101EA0003A313030414630303030464236463839AB
:101EB000344138393538314244304642453931426F
:101EC00044464643464438303136382E3A31303075
:101ED00042303030303132393638433931383233AC
:101EE000303038463037344330383039333731309A
:101EF000303731433038442E3A313030423130308F
:101F0000303830393139443030383133304531466A
:101F10003344303932394430304535453546314522
:101F20003030382E3A313030423230303035423273
:101F300043313139323541393445394637413545F8
:101F40003542314530374339323930393238322E23
:101F50003A31303042333030303536303146383037
:101F60003138323831393045303841333039313019
:101F700035303846303433433041372E3A31303003
:101F8000423430303046433031454535444646349E
:101F900046303939343730393235373031334343CD
:101FA000303830393130422E3A31303042353030ED
:101FB00030363730303830393335373031333743D6
:101FC00030383039313636303038303933353730D3
:101FD0003145412E3A3130304236303030333243A1
:101FE00030383039313634303039303931363530B7
:101FF0003039303933353730313830393330412E9C
:102000003A31303042373030303538303132394380
:102010003038303931363330303830393335373085
:1020200031323443303830393135462E3A31303060
:10203000423830303036323030383039333537305E
:10204000313146433038303931363030303930393B
:10205000313631303043362E3A313030423930303B
:10206000303930393335373031383039333538302D
:102070003131364330383039313833303039303916
:102080003145332E3A3130304241303030383430FF
:1020900030393039333537303138303933353830FD
:1020A0003130444330383039313831303037422ED6
:1020B0003A313030424230303039303931383230D4
:1020C00030393039333537303138303933353830CD
:1020D00031303443303830393144362E3A313030B3
:1020E00042433030303830303038303933353730A3
:1020F0003141303932363030314331394141354563
:10210000354231453033312E3A313030424430306F
:102110003038433931384342393045433036314520
:102120003037304530384545313930453041344419
:102130003346452E3A31303042453030303938451B
:1021400030383845313046423646383934413839EE
:102150003538314244304642453931424433442EC9
:102160003A313030424630303046464346463830C9
:1021700031354232433131393235413934453946CE
:1021800037384543433146393232422E3A313030C6
:1021900043303030303046393230464236304639BE
:1021A000323131323438463933394639334546399C
:1021B000334646393334302E3A31303043313030C3
:1021C00030383039313934303039303931393530CF
:1021D00030303139363930393339353030383039BB
:1021E0003331372E3A3130304332303030393430B9
:1021F000303832423338303538383242423830396C
:102200003137353030383133303631463435412E80
:102210003A31303043333030304530393137343073
:1022200030463045304545304646463146454335D3
:1022300046464534463830383134422E3A31303013
:102240004334303030393138313031393639313842
:1022500033383038334646393145463931394639D5
:10226000313846393138342E3A3130304335303018
:1022700030304639303046424530463930314639C3
:1022800030313839353146393230463932304642CC
:102290003631362E3A3130304336303030304639F0
:1022A00032313132343846393239463932414639A1
:1022B0003242463932454639324646393242382E64
:1022C0003A313030433730303030463933314639A7
:1022D0003332463933334639333446393335463968
:1022E00033364639333746393341342E3A3130307C
:1022F000433830303038463933394639334146393E
:1023000033424639334346393344463933454639F7
:10231000334646393339342E3A3130304339303050
:10232000303830393139333030453832464630452F
:1023300030454530464646314645343544464534B9
:102340004632302E3A31303043413030303230393D
:102350003139343030333039313935303033313848
:102360003332303833384635463835333041462EEF
:102370003A313030434230303031394630383039FC
:102380003339333030313943303130393239333009
:1023900030383039313743303045412E3A313030E2
:1023A00043433030303930393137443030413039BF
:1023B00031374530304230393137463030303139BD
:1023C000364131314443322E3A313030434430309B
:1023D0003042313144383039333743303039303995
:1023E000333744303041303933374530304230397B
:1023F0003332332E3A313030434530303037463087
:102400003039324233383045343839323738324255
:102410004245434532463145304330383130462E0F
:102420003A31303043463030304431383138323848
:10243000313933383143383046443931463834380D
:1024400031393538314338304643412E3A31303016
:102450004430303030443931463836383139373805
:1024600031433830464439314638303835393138DF
:10247000354338304630422E3A31303044313030F6
:1024800030443931463830393136373030383131EF
:1024900031313043303945303141304533423545B3
:1024A0003734332E3A3130304432303030434344C5
:1024B00032323039313630303033303931363130F4
:1024C0003034304530353045304133443232442E9B
:1024D0003A313030443330303033303933393230C0
:1024E00030323039333931303030344330443039A0
:1024F00033393230304330393330452E3A31303091
:10250000443430303039313030383039313636308B
:102510003039304530433831374439303730384638
:10252000343442433036352E3A3130304435303051
:102530003032303931373830303330393137393063
:10254000303238313733393037303846304138431C
:102550003035312E3A313030443630303038303941
:10256000313735303038313131413443303831450D
:102570003038303933373530303130393237432E17
:102580003A31303044373030303734303038303909
:1025900031333630313838323337394630383039E4
:1025A00031333730313831313143382E3A313030F0
:1025B00044383030303034433038314530383039B9
:1025C00033373430303037433038303931333830C6
:1025D000313831313131342E3A31303044393030C4
:1025E0003030334330383245303830393337343097
:1025F0003038303931373430303930453046433077
:102600003142352E3A31303044413030304545305A
:1026100046464631464543354646453446443138BC
:102620003343303833383830463939314641412E1A
:102630003A31303044423030303838304639393130
:1026400046464330314534354646453446383039C0
:1026500031374330303930393141392E3A31303029
:1026600044433030303744303041303931374530F1
:1026700030423039313746303030313937413130FE
:10268000394231303933422E3A31303044443030DF
:1026900030383038333931383341323833423338D7
:1026A00033383145303930453039303933373330CC
:1026B0003033412E3A3130304445303030383039C3
:1026C00033373230303737433032303931373830C2
:1026D0003033303931373930303238313741352EB7
:1026E0003A31303044463030303339303730384684
:1026F0003435444330383039313735303038313380
:1027000030303946303641433034302E3A31303073
:102710004530303030303039313734303031304579
:1027200030463830314545304646463146454530DD
:10273000464646314642452E3A31303045313030FA
:1027400030453435464645344634303831353138F5
:102750003136323831373338313830393137433028
:102760003034422E3A313030453230303039303921
:1027700031374430304130393137453030423039EB
:102780003137463030383431373935303737452EE8
:102790003A313030453330303041363037423730DF
:1027A000373530463046383031454530464646317B
:1027B00046453535434645344636352E3A31303078
:1027C000453430303038343142393530423931389F
:1027D0003338303833303743304638303145453080
:1027E000464646314637312E3A3130304535303065
:1027F000304535354346453446313138323130384D
:10280000324338303138383046393931463943303F
:102810003132412E3A313030453630303032433566
:102820004633453446373930314639303132303825
:102830003133313831413445364230453038392E24
:102840003A3130304537303030323444323442302F
:102850003135433031323039313630303033303940
:1028600031363130304144454330372E3A31303003
:1028700045383030304243454331424432393639AD
:1028800035383739353936393538373935323832E0
:10289000463330453044382E3A31303045393030C7
:1028A00030343045303530453043353031423430C6
:1028B00031454544314637303133313833323038A1
:1028C0003337392E3A3130304541303030463830A8
:1028D0003145413543464534463831453038303846
:1028E0003331303932373530303132433036392EAA
:1028F0003A31303045423030303830393137353088
:10290000303831333037314634383039313732307E
:1029100030393039313733303037462E3A31303074
:102920004543303030303139363930393337333050
:10293000303830393337323030383133423934344B
:10294000303130463045302E3A3130304544303029
:102950003031303932373530303830393137413035
:102960003039303931374230303930393337393016
:102970003033382E3A313030454530303038303908
:1029800033373830304430393337423030433039E0
:102990003337413030313039323935303039352EF6
:1029A0003A313030454630303031303932393430D8
:1029B0003046463931454639314446393143463946
:1029C00031424639314146393134432E3A31303083
:1029D000463030303039463931384639313746396A
:1029E0003136463931354639313446393133463955
:1029F000313246393132312E3A3130304631303091
:102A0000303146393130463931464639304546391C
:102A10003042463930414639303946393038463906
:102A20003039372E3A313030463230303030463956
:102A30003030464245304639303146393031383908
:102A40003542393941433139383841394138412EDD
:102A50003A31303046333030303932393831304223
:102A600043384245303839423931424238353939B4
:102A700038384142313838364431412E3A313030DD
:102A800046343030303841423938304235383636C5
:102A900038383042443038393534343233373946B7
:102AA000304136324642432E3A31303046353030AE
:102AB00030423732464643303134313530323432A9
:102AC0004633304530324635463346344632383068
:102AD0004636372E3A3130304636303030333931A1
:102AE000463944393139313933453231374633305B
:102AF0003744394637303839353146393243362E46
:102B00003A31303046373030303046393230464254
:102B10003630463932313132343246393333463940
:102B200033344639333546393343442E3A31303025
:102B300046383030303646393337463933384639FF
:102B400033394639334146393342463933454639BC
:102B5000334646393335312E3A313030463930300C
:102B600030394342313232423338304534383232F0
:102B700037383242423830393136383030393831EE
:102B80003343312E3A3130304641303030313043EA
:102B900030383039313946303038313131304343D3
:102BA0003038303931394430303831313132332EE8
:102BB0003A313030464230303030384330383039B6
:102BC0003139463030384635463830393339463079
:102BD00030393039333631303139342E3A313030C2
:102BE0004643303030354643303935333541394648
:102BF0003438303931394630303831333030394675
:102C0000303439433033382E3A3130304644303066
:102C1000303830393139443030383131313435435E
:102C2000303130393239463030383145303830394A
:102C30003331372E3A313030464530303039443038
:102C4000303130393239453030433139413830391B
:102C50003135353031384342393438433031352E0F
:102C60003A313030464630303038303931394630FC
:102C700030383131313341433033314330383039FA
:102C800031394430303831313138342E3A31303105
:102C900030303030303043433045303931394630D0
:102CA000304630453045463539464534463930386A
:102CB000333830393137422E3A31303130313030DB
:102CC0003039463030384635463830393339463079
:102CD000303333433039353335463946343830397B
:102CE0003144362E3A31303130323030303946309E
:102CF000303842333036394634383039313944305F
:102D00003038313131303943303443453044342E5A
:102D10003A31303130333030303631453637314565
:102D20003038444536393145303838444631303909
:102D300032394630303230433041432E3A3130312F
:102D40003034303030383039313944303038313344
:102D50003035314634383039313945303038423306
:102D6000303331463436442E3A313031303530301C
:102D70003031303932394430303130393239453000
:102D800030433139383132433031303932394630DD
:102D90003041352E3A3130313036303030304643E4
:102DA00030383039313946303038383233443146B2
:102DB0003230354330383039313946303031452EB4
:102DC0003A313031303730303038423330313846B4
:102DD0003246334346383039313946303038423361
:102DE00030383046364244434637432E3A3130314C
:102DF000303830303046463931454639314246392F
:102E00003141463931394639313846393137463919
:102E1000313646393136302E3A3130313039303072
:102E20003035463931344639313346393132463915
:102E300031304639303046424530463930314639F6
:102E40003033362E3A31303130413030303138394C
:102E500035314639323046393230464236304639DD
:102E60003231313234384639334546393330322EF7
:102E70003A313031304230303046463933383039EB
:102E800031394430303831333036394634383039DE
:102E900031394530303846354634352E3A313031C7
:102EA00030433030303830393339453030453039BF
:102EB000313945303046304530454235414645345C
:102EC000463830383146442E3A3130313044303093
:102ED0003043313941384342394646393145463924
:102EE000313846393130463930304642453046393E
:102EF0003033352E3A31303130453030303146398B
:102F0000303138393538324239383642373835364B
:102F10003438364246384645463830393336442E02
:102F20003A3130313046303030303330313835425C
:102F3000353837363038354244383942373830360C
:102F400034383942463130393237422E3A31303115
:102F50003130303030304230313130393233393045
:102F600031303839353146393230463932304642DF
:102F7000363046393241322E3A313031313130300B
:102F800030313132343246393333463933344639CD
:102F9000333546393336463933374639333846398F
:102FA0003346432E3A3130313132303030394639C0
:102FB000334146393342463933454639334646393B
:102FC0003338303931304230313831333031372EC7
:102FD0003A313031313330303033314634383039B2
:102FE000313339303138463546383039333339307A
:102FF00031303643303830393132442E3A31303185
:103000003134303030304230313831313130324388
:103010003031303932333930313830393133393079
:10302000313834333036342E3A3130313135303076
:103030003031384630383039313638303043364424
:10304000464646393145463931424639314146399D
:103050003143392E3A31303131363030303946391A
:1030600031384639313746393136463931354639C6
:103070003134463931334639313246393142462EC0
:103080003A313031313730303030463930304642E5
:1030900045304639303146393031383935314639A5
:1030A00032304639323046423646312E3A313031AE
:1030B00031383030303046393231313234384639B7
:1030C0003339463933454639334646393338324247
:1030D000333830353831342E3A31303131393030BF
:1030E000303832424238314231383837463830335E
:1030F0003841314630313846343830333633314652
:103100003041442E3A313031314130303035354361
:103110003038383341423946313838334241394604
:103120003135304330383145303830393344442E2E
:103130003A31303131423030303042303131303953
:1031400032333930313835454338364246384645D2
:1031500046383039333033303146432E3A3130310E
:103160003143303030353143303833423139303902
:1031700031303330313946334637394634393039D6
:10318000313341303130452E3A31303131443030F5
:1031900030394635463930393333413031383533BB
:1031A00031313846343830393330333031303243CE
:1031B0003031382E3A3130313145303030313039DC
:1031C0003230333031383545433836424633444364
:1031D0003045303931303330314630453036312E9C
:1031E0003A3130313146303030454635424645344B
:1031F000463830383338303931303330313846356D
:1032000046383039333033303133422E3A31303171
:103210003230303030383039313033303138333388
:1032200031313846343835454338364246324243E8
:10323000303835453846422E3A313031323130302F
:103240003038364246323843303830393130333016
:10325000313846334631314634313039323033300B
:103260003131332E3A31303132323030304530392D
:1032700031303330314630453045383545464534B8
:103280004638303831383342393830393139382ED0
:103290003A313031323330303030333031384635F6
:1032A00046383039333033303138303931303330DB
:1032B00031383333313138463444302E3A313031BD
:1032C0003234303030383545433836424630464364
:1032D000303835453838364246304343303130395E
:1032E000323042303145442E3A313031323530308F
:1032F000303130393233393031383142313831318F
:103300003130334330383642373830363938364248
:103310004643302E3A313031323630303038354550
:1033200043383642464646393145463931394639C1
:103330003138463931304639303046424546432EE1
:103340003A31303132373030303046393031463929
:1033500030313839354131453231413245414131E1
:1033600042424231424644303130462E3A313031C9
:1033700032383030303044433041413146424231BE
:103380004645453146464631464132313742333073
:10339000374534303736352E3A31303132393030E6
:1033A00030463530373230463041323142423330A8
:1033B0004245343042463530423636314637373171
:1033C0004642442E3A313031324130303038383193
:1033D0004639393146314139343639463736303954
:1033E0003537303935383039353930393539442E7B
:1033F0003A3130313242303030394230314143306D
:103400003142443031434630313038393541323938
:1034100046423030314233394637362E3A31303138
:10342000324330303043303031413339463031442B
:10343000304232394637303044383131443131321C
:10344000343931314446422E3A3130313244303011
:1034500030303839354531393946454346394642A9
:103460004238454242453039413939323738444291
:103470003330442E3A313031324530303030383903
:1034800035413645314230453034344530353045AC
:103490003032344330413845314230453046392EA0
:1034A0003A313031324630303034324530353045C3
:1034B000303146433032363246453139394645435C
:1034C00046394642423845424237452E3A3130313C
:1034D0003330303030453039413031393730444283
:1034E0003230323136333146303244424230464255
:1034F000364638393439412E3A3130313331303073
:10350000304532394145313941304642453038390C
:1035100035303339363237324645444446454244E5
:103520004645372E3A313031333230303032353251
:1035300046454144463234324645384346303139B7
:103540003632373246453544464533434633332ECB
:103550003A3130313333303030444330314342300C
:10356000314643303145313939464543463036439B
:1035700030464642424545424239372E3A31303193
:1035800033343030304530394133313936304442CC
:1035900032304439323431353035303430423846C7
:1035A000373038393539312E3A30343133353030DF
:1035B00030463839344646434633462E3A30433156
:1035C00033353430303538303133313332343830CC
:1035D0003030313031464630313034303038332EAF
:1035E0003A303030303030303146462E0000112431
:1035F0001FBECFEFD0E1DEBFCDBF24E0A0E0B1E041
:1036000001C01D92AE3CB207E1F70E94631F0C940B
:1036100015300C940000EBEDF3E01282138214825B
:103620001582168217821086108211A213A210A290
:10363000118AAA98E5E6F0E080818F778083AE98C2
:10364000D89AD99AA898A998AA98AB98AC98AD9806
:1036500008952091DA03222321F02091D903222317
:10366000D9F121E02093D8034091D4035091D503A0
:103670006091D6037091D7034E5F5F4F6F4F7F4FBE
:103680004093D0035093D1036093D2037093D3033C
:103690001B9A2091D903222399F020917A032223A7
:1036A00079F020E0FC01E20FF11D30813C32A1F005
:1036B00040919B0045FFFCCF30939C002F5FF2CFE1
:1036C000FC010C9620919B0025FFFCCF21912093BB
:1036D0009C008E179F07B1F708959091DA0391111E
:1036E00038C09091D903911134C091E09093D803E0
:1036F0004091D4035091D5036091D6037091D703C4
:103700004E5F5F4F6F4F7F4F4093D0035093D10375
:103710006093D2037093D3031B9A80939C00809193
:103720009B0085FFFCCF85E580939C008091D403AE
:103730009091D503A091D603B091D7030296A11D15
:10374000B11D8093D0039093D103A093D203B09383
:10375000D30308955D9BFECF8CB908950F931F93FB
:10376000CF93DF938C018EEF0E94AA1BE801065FC6
:103770001F4F89910E94AA1BC017D107D1F78DEF67
:10378000DF91CF911F910F910C94AA1B82E194E0DD
:103790000E94AE1B90E080E0FC01E552FC4F17AAAE
:1037A00001968A309105C1F708958F929F92AF924A
:1037B000BF92CF92DF92EF92FF920F931F9390915F
:1037C000A604911166C010929E0410929F0410925C
:1037D000A0041092A10491E09093A6041092AE046C
:1037E0001092AD041092B0041092AF041092B20483
:1037F0001092B1041092B4041092B3041092B60463
:103800001092B5041092B8041092B7041092BA0442
:103810001092B9041092BC041092BB041092BD0423
:10382000833041F178F48130B9F08230F1F01F91AA
:103830000F91FF90EF90DF90CF90BF90AF909F904F
:103840008F900895853001F1D0F0863081F7809116
:1038500098049091990404C080918E0490918F04F3
:103860009093AC048093AB04E2CF8091900490914C
:103870009104F6CF8091920490919304F1CF8091BE
:10388000940490919504ECCF8091960490919704C4
:10389000E7CFEDEAF4E000E010E09801A191B191EA
:1038A0000A0F1B1F211D311D94E0ED3BF907B1F7F5
:1038B00048015901E3E0B694A79497948794EA9558
:1038C000D1F7C0909E04D0909F04E090A004F090A7
:1038D000A104C416D506E606F70658F04091220466
:1038E0005091230470E060E0481559056A057B0596
:1038F000A8F59091DC03911131C09BE690931204DE
:1039000091E090931304809314048F2D9927AA2794
:10391000BB2780931504C701AA27BB2780931604F1
:10392000BB27AF2D9E2D8D2D80931704C0921804B8
:103930005BE036952795179507955A95D1F7009333
:10394000190480921A048091120481110E94C61BEE
:103950001092AC041092AB040E940B1B1092A604B0
:1039600066CFCF93DF93EC011B861986188689E119
:1039700090E0A0E0B0E08C879D87AE87BF87E0E84D
:10398000F3E08CE0DF011D928A95E9F78A85E6E68F
:10399000F3E0828F84E0838F85E585A380E893E060
:1039A0000E94291B8091620390916303A09164039C
:1039B000B09165030A96A11DB11D898B9A8BAB8BC3
:1039C000BC8BDF91CF91089584E98093740083E3E9
:1039D0009091740094FF07C0E2E3F7E03197F1F7AC
:1039E00000008150A9F7089584EC8093740083E36C
:1039F0009091740097FF03C0809173000895E2E3F3
:103A0000F7E03197F1F70000815091F780E00895D9
:103A10001092740094EA9093740093E320917400E0
:103A200027FF07C090917100987F983059F081E08E
:103A30000895E2E3F7E03197F1F70000915071F754
:103A400082E008958093730084E88093740083E398
:103A50009091740097FF09C080917100887F883130
:103A600011F0803421F780E00895E2E3F7E0319728
:103A7000F1F70000815061F7E3CF1F920F920FB66C
:103A80000F9211242F935F936F937F938F939F9344
:103A9000AF93BF9380916003909161030A969093D6
:103AA0006103809360038091D4039091D503A0912A
:103AB000D603B091D7030196A11DB11D8093D40305
:103AC0009093D503A093D603B093D703809160035E
:103AD0009091610364E670E00E94152E892B99F4A1
:103AE00080915C0390915D03A0915E03B0915F03B0
:103AF0000196A11DB11D80935C0390935D03A0937B
:103B00005E03B0935F038091600390916103883EF0
:103B10009340B8F08091620390916303A091640395
:103B2000B09165030196A11DB11D8093620390932E
:103B30006303A0936403B093650310926103109232
:103B40006003BF91AF919F918F917F916F915F9132
:103B50002F910F900FBE0F901F9018951F920F92EC
:103B60000FB60F9211242F933F934F935F936F9350
:103B70007F938F939F93AF93BF93EF93FF93809126
:103B80009C00893F98F190915B0391112FC091E0C7
:103B90009093DA034091D4035091D5036091D603FA
:103BA0007091D7034E5F5F4F6F4F7F4F4093D003AD
:103BB0005093D1036093D2037093D30390915B032E
:103BC0009F5F90935B0380934F03FF91EF91BF91B1
:103BD000AF919F918F917F916F915F914F913F91A5
:103BE0002F910F900FBE0F901F90189590915B032F
:103BF000913031F4853521F49091D803913091F1D1
:103C000090915B03911146C0853509F054C09091A5
:103C10005B039B3009F07AC0E0915B03F0E0E15B6D
:103C2000FC4F80838091D80381116AC090E080E0CE
:103C30004CE0FC01E15BFC4F208130914E03FC0124
:103C4000439FE00DF11D1124E257FD4F20830196A3
:103C50008C30910571F710924E0310925B03109215
:103C6000DA0307C010925B031092DA031092D803B4
:103C70001B988091D4039091D503A091D603B09165
:103C8000D7038093D0039093D103A093D203B09332
:103C9000D3039BCF90915B039B3008F0B5CFE091AD
:103CA0005B03F0E0E15BFC4F808380915B038F5FFF
:103CB00080935B038ACF8B3339F590915B0391112D
:103CC00025C091E09093DA034091D4035091D5033D
:103CD0006091D6037091D7034E5F5F4F6F4F7F4F58
:103CE0004093D0035093D1036093D2037093D303D6
:103CF00080934F0380918D028F5F80938D0265CFFB
:103D00001092D8031B98A9CF833261F08091D90318
:103D1000813009F45ACF10925B031092DA031092AB
:103D2000D803A7CF90915B039111F0CF91E09093CE
:103D3000DA034091D4035091D5036091D60370917A
:103D4000D7034E5F5F4F6F4F7F4F4093D003509329
:103D5000D1036093D2037093D30380934F0385E024
:103D6000CCCF1F920F920FB60F9211242F933F9337
:103D70008F939F93AF93BF93EF93FF9382B390E1A1
:103D8000892782BB8091A6048130A9F5E091AB041C
:103D9000F091AC04309779F180919E0490919F044A
:103DA000A091A004B091A1048093A2049093A304D5
:103DB000A093A404B093A50426813781820F931F9A
:103DC000A11DB11D80939E0490939F04A093A00415
:103DD000B093A1048091BD0420813181E82FF0E0EF
:103DE000EE0FFF1FE355FB4F31832083883009F42A
:103DF00080E08093BD04FF91EF91BF91AF919F91BF
:103E00008F913F912F910F900FBE0F901F9018959B
:103E10001F920F920FB60F9211242F933F938F93FF
:103E20009F93AF93BF93EF93FF939CB1E0910401F5
:103E30009E3F19F5EF3FA1F490910501A6E0B1E096
:103E400080E02EEF3C91311103C0E82F2C9391E0DC
:103E50008F5F1C968431B1F7E093040190930501C4
:103E6000FF91EF91BF91AF919F918F913F912F91D2
:103E70000F900FBE0F901F9018959D3F89F4E7FD9E
:103E8000EFCF809105018B3059F72CE0E202F00171
:103E90001124EA5FFE4F93878FEF80930401E0CFF8
:103EA000E7FDDECF809105018B30D0F62CE0E202F9
:103EB000F0011124EA5FFE4FE80FF11D90838F5F40
:103EC00080930501CDCFCF93DF93CDB7DEB7A89711
:103ED0000FB6F894DEBF0FBECDBF85B78B7F85BF11
:103EE00088988998909A919A8091710081608093C6
:103EF000710080917100809371009AEF909370002F
:103F000081E080938102109282021092030110924C
:103F10005C0310925D0310925E0310925F03109297
:103F2000620310926303109264031092650383B7D7
:103F3000876083BF83B7886083BF88E481BF87B70A
:103F4000826087BF8C9A8EB584608EBD8EB5886086
:103F50008EBD20E830E73BBD2ABD87B7806187BFB3
:103F6000139A129A1B981A98149A159A1C9A1D98CB
:103F7000109298001BE01093990010929B00809182
:103F80009B008D7F80939B0080919A00886980932D
:103F90009A0080919D00866080939D002EE732E01C
:103FA000309368032093670329E632E030936A0375
:103FB0002093690324E532E030936C0320936B0374
:103FC0002FE332E030936E0320936D032AE232E058
:103FD0003093700320936F0325E132E03093720336
:103FE0002093710320E032E0309374032093730335
:103FF0002BED33E030937603209375038EEF80939F
:1040000073028DEF80935E028CEF809349028BEFF9
:104010008093340290931F0289EF80930A0289E60D
:1040200092E00E94B11C88EF97E40197F1F700C07D
:10403000000084E592E00E94B11CA8EFB7E411975C
:10404000F1F700C000008FE392E00E94B11CE8EF9E
:10405000F7E43197F1F700C000008AE292E00E9495
:10406000B11C88EF97E40197F1F700C0000085E1EB
:1040700092E00E94B11CA8EFB7E41197F1F700C0DD
:10408000000080E092E00E94B11C8091D4039091E6
:10409000D503A091D603B091D7038093C00390932A
:1040A000C103A093C203B093C3031092770310928D
:1040B00078031092790310927A0310928D03109274
:1040C0008C038091D4039091D503A091D603B09135
:1040D000D7038093C4039093C503A093C603B09302
:1040E000C70310928D021092900019B91BB88AB1C3
:1040F00088698AB98091950086608093950026E052
:1041000031E044E190E080E0F901E80FF91F10820E
:1041100001968C309105C1F74150245F3F4F41110A
:10412000F1CF81E0809305019FEF909304018AB362
:1041300083608ABB8BB383608BBB94BB809164002C
:104140008068809364008C9A1092DB031092EB03DA
:1041500084EE93E05DED252E53E0352EF1011192B2
:104160001F0116828E179F07C9F790E080E0FC01BF
:10417000E552FC4F17AA01968A309105C1F788E5F0
:1041800092E090931F0480931E04909321048093E7
:10419000200488EB9BE0909323048093220489E61B
:1041A0008093F601E7EFF1E080E092E025E52193CE
:1041B0008E179F07E1F789E692E090938F04809332
:1041C0008E0484E592E090939104809390048FE3B1
:1041D00092E090939304809392048AE292E0909309
:1041E00095048093940485E192E0909397048093E2
:1041F000960480E092E09093990480939804109242
:104200002404109225041092260410922704109280
:104210002804109229041092EC031092FC031092CF
:10422000BD0480E29FEBA2E0B0E08093BE049093D7
:10423000BF04A093C004B093C10480EE93E9A4E04E
:10424000B0E08093C2049093C304A093C404B093DD
:10425000C50480E093E5A7E0B0E08093C6049093A6
:10426000C704A093C804B093C904789411E0CE01A8
:10427000019698A78FA38091D4039091D503A09124
:10428000D603B091D7034091C0035091C103609110
:10429000C2037091C303481759076A077B0708F0E8
:1042A00074C08091D903811170C0E0E8F3E08CE024
:1042B000DF011D928A95E9F789E08093810380915F
:1042C000620390916303A0916403B0916503B0937E
:1042D00082038091620390916303A0916403B09183
:1042E0006503A09383038091620390916303A0917F
:1042F0006403B0916503909384038091620390916D
:104300006303A0916403B09165038093850385E501
:1043100080938B03E0917703E150ED3008F01EC5E8
:10432000F0E0EB56FE4D0C94292EA22138264026B3
:1043300045264A264F26542659265E266326682699
:104340006D267226E0916903F0916A03828580935D
:10435000800380E893E00E94291B809177038F5FA0
:10436000809377038091D4039091D503A091D603D5
:10437000B091D7030396A11DB11D8093C003909304
:10438000C103A093C203B093C303F12CE12C04E05A
:1043900043E0D42E8CE08E9DF0018F9DF00D112412
:1043A000E257FD4F8081882309F4C0C0838585359D
:1043B00009F0BCC08081A0916903B0916A038E3F6F
:1043C00011F0B0E0A0E08CE08E9DF0018F9DF00D2B
:1043D0001124E257FD4F80818D3F21F4A0916B03A2
:1043E000B0916C038CE08E9DF0018F9DF00D112437
:1043F000E257FD4F80818C3F21F4A0916D03B09175
:104400006E038CE08E9DF0018F9DF00D1124E2571C
:10441000FD4F80818B3F21F4A0916F03B091700319
:104420008CE08E9DF0018F9DF00D1124E257FD4F21
:1044300080818A3F21F4A0917103B09172038CE0D6
:104440008E9DF0018F9DF00D1124E257FD4F80816C
:10445000893F21F4A0917303B09174038CE08E9D89
:10446000F0018F9DF00D1124E257FD4F80818F3FA9
:1044700009F44AC0109709F447C08181883009F4D3
:10448000E8C4893009F4F1C48530F1F562815381C3
:1044900044819580968137818085218570E0762FD3
:1044A0006627650F711D11967C936E9350E0542F13
:1044B0004427490D511D13965C934E931297492F33
:1044C00050E0542F4427430F511D15965C934E9393
:1044D000149790E0982F8827820F911D17969C9330
:1044E0008E93169740916203509163036091640329
:1044F00070916503465F5F4F6F4F7F4F51964D93AD
:104500005D936D937C93549790E080E04CE04E9DDA
:1045100090014F9D300D112422573D4FF901E80FB6
:10452000F91F108201968C309105C1F72FEFE21A26
:10453000F20A80E1E816F10409F02CCF0091D903CA
:10454000013009F04AC090917903E0E8F3E08CE093
:10455000DF011D928A95E9F780917A0381112EC5BA
:104560004091D4035091D5036091D6037091D70345
:10457000463F5F4F6F4F7F4F09F422C510928D0267
:10458000909380038EE08093810385E580938B0375
:10459000CF010E94291B00937A038091D40390914C
:1045A000D503A091D603B091D7030F96A11DB11DDD
:1045B0008093C8039093C903A093CA03B093CB031D
:1045C0004091D4035091D5036091D6037091D703E5
:1045D000481759076A077B0798F34091D003509119
:1045E000D1036091D2037091D3038091D403909151
:1045F000D503A091D603B091D703481759076A078E
:104600007B0748F58091DA03813021F08091D8034F
:10461000813009F51092DA031092D80310925B03EF
:1046200090E080E0FC01E15BFC4F108201968C3051
:104630009105C1F78091D4039091D503A091D60341
:10464000B091D7038093D0039093D103A093D2036A
:10465000B093D3031B988091DB03823009F03EC1F5
:104660008091FE03823019F0843009F037C18091C7
:10467000620390916303A0916403B091650340913C
:104680009A0450919B0460919C0470919D0448177A
:1046900059076A077B0708F021C1E0918E04F09169
:1046A0008F044091620350916303609164037091A1
:1046B000650381899289A389B48984179507A60720
:1046C000B707B8F4868197810B9798F08BE68093B3
:1046D000120482E080931304109314048781809362
:1046E00015048681809316048091120481110E9422
:1046F000C61BE0919004F0919104409162035091A7
:104700006303609164037091650381899289A38931
:10471000B48984179507A607B707B8F486819781EF
:104720000B9798F08BE68093120482E08093130439
:1047300080931404878180931504868180931604E6
:104740008091120481110E94C61BE0919204F091A5
:1047500093044091620350916303609164037091EC
:10476000650381899289A389B48984179507A6076F
:10477000B707C0F4868197810B97A0F08BE68093F2
:10478000120482E08093130483E0809314048781F1
:104790008093150486818093160480911204811100
:1047A0000E94C61BE0919404F0919504409162032D
:1047B00050916303609164037091650381899289CC
:1047C000A389B48984179507A607B707C0F4868123
:1047D00097810B97A0F08BE68093120482E0809380
:1047E000130484E0809314048781809315048681E8
:1047F000809316048091120481110E94C61BE091DF
:104800009604F09197044091620350916303609184
:1048100064037091650381899289A389B48984179F
:104820009507A607B707C8F4868197810B97A8F06C
:104830008BE68093120482E08093130435E0432ECC
:104840004092140487818093150486818093160416
:104850008091120481110E94C61BE0919804F0918E
:1048600099044091620350916303609164037091D5
:10487000650381899289A389B48984179507A6075E
:10488000B707C8F4868197810B97A8F08BE68093D1
:10489000120482E08093130426E0522E50921404F6
:1048A0008781809315048681809316048091120479
:1048B00081110E94C61B8091620390916303A091B5
:1048C0006403B0916503CC96A11DB11D80939A0439
:1048D00090939B04A0939C04B0939D048091DB0370
:1048E0008093F7019091EC039093FA019091FE036D
:1048F0009093FB019091FB039093FC018130D1F4E4
:104900008093FE031092EC038091DC03813009F068
:10491000D4C383E090E090931F0480931E0490938F
:10492000210480932004109223041092220482E038
:104930008093DB038091DB03823009F0D0C02091AB
:10494000EC0321112BC09091FE0330E081E0E82FB1
:10495000F0E0E552FC4F4281491303C02F5F382F2E
:1049600087E08F5F873098F33093EC03211116C0F6
:104970009F5F9093FE038091620390916303A091E7
:104980006403B09165034496A11DB11D80939A0400
:1049900090939B04A0939C04B0939D048091FE038C
:1049A000823091F58091FF03813071F51092FE0302
:1049B0001092FD031092FC031092DD031092DE03AF
:1049C0001092DF031092E0031092E1031092E203D1
:1049D0001092E30380915C0390915D03A0915E03CC
:1049E000B0915F03C296A11DB11D809308049093FE
:1049F0000904A0930A04B0930B0483E08093DB03C3
:104A00001092EC031092FF038091EC03882309F4C9
:104A100066C0E82FF0E0E552FC4F02819091FE0362
:104A200009135DC0833009F4A8C308F057C381306F
:104A300009F475C3823009F489C3013009F06BC4ED
:104A4000E0900C04F0900D04D0900E049091DB03E4
:104A50002091FC03213009F042C0923009F03FC0A0
:104A60009091FD039111CDC34091BE045091BF04BC
:104A70006091C0047091C1040E94D51BD7012C9194
:104A800081E090E0AC0101C0440FDA94EAF7242BF6
:104A90002C9330911104E0910F04F09110042081C7
:104AA00002C0880F991F3A95E2F78095909582236E
:104AB0008083AF9A0093FD0380916203909163031A
:104AC000A0916403B09165030F96A11DB11D809361
:104AD000A7049093A804A093A904B093AA0480917A
:104AE000DB038330B9F480915C0390915D03A09166
:104AF0005E03B0915F0340910804509109046091F6
:104B00000A0470910B0484179507A607B70710F0E5
:104B10001092DB0380915C0390915D03A0915E0392
:104B2000B0915F0340910404509105046091060424
:104B300070910704481759076A077B07B8F486EF96
:104B400091E00E94AE1B80915C0390915D03A09167
:104B50005E03B0915F030596A11DB11D809304040F
:104B600090930504A0930604B093070480915C031E
:104B700090915D03A0915E03B0915F0340910004AA
:104B8000509101046091020470910304FF24F39496
:104B900006E6E02E481759076A077B0708F4F1C5B7
:104BA0008CE0AFA1B8A51D928A95E9F7E6E0F1E0A7
:104BB00090E080E020812E3F09F07FC623852D3FC5
:104BC00009F07BC6DE0111962CE0289FF001299F99
:104BD000F00D1124AF014A5F5E4F81E090E09A0131
:104BE000280F391FF90120812D9301968B309105F3
:104BF000B1F78CE0DA011D928A95E9F78091F8010E
:104C00008F5F8093F8018981813009F0A0C680917F
:104C1000DB03811158C68A8190E0B0E0A0E0B82F94
:104C2000AA27992788274B8150E070E060E0BA01FD
:104C300055274427840F951FA61FB71F2D81820F6C
:104C4000911DA11DB11D4C8150E070E060E0762FF8
:104C5000652F542F4427840F951FA61FB71F8093DD
:104C6000620390936303A0936403B09365032BC620
:104C7000E0916903F0916A0382850E946D1B6DCB00
:104C8000E0916B03F0916C0361CBE0916B03F091C9
:104C90006C03F2CFE0916D03F0916E0357CBE0917E
:104CA0006D03F0916E03E8CFE0916F03F091700314
:104CB0004DCBE0916F03F0917003DECFE091710373
:104CC000F091720343CBE0917103F0917203D4CF62
:104CD000E0917303F091740339CBE0917303F09189
:104CE0007403CACFE0E8F3E08CE0DF011D928A95FF
:104CF000E9F788E08093810385E580938B03E09159
:104D0000780381E08E0F80937803EC3008F09EC02A
:104D1000F0E0E357F94D0C94292E9926A526B126EB
:104D2000B626DA26DF26EE26F326032708271827DD
:104D30001D27E0916903F0916A03828580938003C7
:104D400080E893E00E94291B09C08091D903E0917B
:104D50006903F0916A03882309F44DC01092770328
:104D6000FCCAE0916B03F0916C03E7CF8091D9030B
:104D70008111F4CFE0916B03F0916C0380859185F4
:104D80008130944058F740916203509163036091E1
:104D900064037091650381899289A389B48984171A
:104DA0009507A607B707D0F21093D90382858093A1
:104DB0007903D4CFE0916D03F0916E03BECF809163
:104DC000D903E0916D03F0916E038111C7CF808507
:104DD000918501978115944008F6E6CFE0916F0325
:104DE000F0917003AACF8091D9038111B7CFE091E0
:104DF0006F03F09170038085918501978115944030
:104E000008F0ACCFD1CFE0917103F091720395CF50
:104E10008091D9038111A2CFE0917103F0917203C7
:104E20008085918501978115944008F097CFBCCF7C
:104E3000E0917303F091740380CF8091D9038111C5
:104E40008DCFE0917303F0917403C1CF109278037A
:104E500085CF8281238190E0982F8827820F911D32
:104E600019969C938E9318973DCB428193818481B0
:104E7000358120816681578170E0762F66275B013E
:104E8000A50EB11C40845185A114B10409F43CCB9A
:104E9000512C542C4424450E511C4114510409F446
:104EA00033CB50E070E060E0742F6627552744272D
:104EB000692E712C912C812C430177246624460D98
:104EC000571D681D791D430F511D611D711D90E017
:104ED000B0E0A0E0BA2FA92F982F8827480F591FBC
:104EE0006A1F7B1FA0917503B0917603912C32E06D
:104EF000692C712CCD01EAE0E99D800D911D1124F2
:104F0000FC01E85AFF4FE081E1112DC0FC01E15B9B
:104F1000FF4F40835183628373832E3F39F48D5A50
:104F20009F4F88248394FC01808206C02D3F51F559
:104F30008D5A9F4FFC013083FAE09F2E969CC00152
:104F4000979C900D11248A0F9B1FFC01EC5AFF4F78
:104F5000B182A082329651824082885A9F4F662445
:104F60006394FC0160829394E9E07E2E791408F04A
:104F7000BFCF79836A835B834C83CE0101960E9405
:104F8000291BC2CA2C3F29F48D5A9F4FFC01D082A5
:104F9000D3CF2B3F29F48D5A9F4FFC010083CCCFF8
:104FA0002A3F29F48D5A9F4FF5E08F2EBCCF293F21
:104FB00019F68D5A9F4FE6E08E2EB5CF813039F02D
:104FC0001092D90310928D0210927A0306CB809131
:104FD0008D028130A9F78091D4039091D503A091DF
:104FE000D603B091D7034091C4035091C50360919B
:104FF000C6037091C703481759076A077B0700F774
:1050000042E350E06CE270E08EE893E00E940E30E4
:1050100080918C0390918D03AEE8B3E0AC014D5CC0
:105020005F4FFC01E457FF4F24912E32D9F5909346
:105030008D0380938C038EE893E00E94291B80915E
:105040008C0390918D03019690938D0380938C0334
:105050008091D4039091D503A091D603B091D7034A
:105060000196A11DB11D8093C4039093C503A09325
:10507000C603B093C70380918F03803369F4809196
:105080009003803349F480917A038F5F80937A0391
:1050900010928D0310928C0380918D02853009F05F
:1050A0009CCA8ECF9C012F5F3F4F4217530709F4D4
:1050B000BECFE491ED93C901B4CF88E592E090931F
:1050C0001F0480931E04909321048093200488EB96
:1050D0009BE0909323048093220429CC853009F42B
:1050E0007AC008F462C0863009F0A7CC2BE330E028
:1050F0003093100420930F0491E020912904223072
:1051000009F090E09093110425E330E030930D0412
:1051100020930C0495E0692E60920E048ECC2BE354
:1051200030E03093100420930F0491E02091240488
:10513000223009F090E09093110425E330E03093A1
:105140000D0420930C0410920E0477CC2BE330E076
:105150003093100420930F0491E020912504223015
:1051600009F090E09093110425E330E030930D04B2
:1051700020930C0410930E0460CC2BE330E03093AA
:10518000100420930F0491E020912604223009F0AE
:1051900090E09093110425E330E030930D042093C8
:1051A0000C0492E090930E0448CC2BE330E0309353
:1051B000100420930F0491E020912704223009F07D
:1051C00090E09093110425E330E030930D04209398
:1051D0000C0493E0E7CF2BE330E0309310042093EE
:1051E0000F0491E020912804223009F090E0909380
:1051F000110425E330E030930D0420930C0494E077
:10520000D1CF913009F086CC4091BE045091BF04BB
:105210006091C0047091C10440909E0450909F041E
:105220006090A0047090A1044BA25CA26DA27EA22B
:105230004416550666067706D0F00E94D51BAF9837
:10524000D7012C9181E090E001C0880FDA94EAF751
:10525000809582238C931092FD03E091EC03F0E0A3
:10526000E552FC4F8091FE038F5F8283A9C040907E
:1052700062035090630360906403709065034F8EE7
:1052800058A269A27AA26090A7047090A8048090A6
:10529000A9049090AA04540143014F8C58A069A01E
:1052A0007AA084149504A604B70408F033CC809047
:1052B000A2049090A304A090A404B090A5044BA0D5
:1052C0005CA06DA07EA0481459046A047B0489F494
:1052D0000E94D51BAF98D7012C9181E090E00D2C56
:1052E00001C0880F0A94EAF7809582238C9310926C
:1052F000FD038091DC03813009F019C1AF98F701FB
:10530000208181E090E001C0880FDA94EAF780956F
:1053100082238083A0CF023009F055C080910E0413
:105320008091DB032091FC03213009F0D8CB82303F
:1053300009F0D5CB8091FD0381111BC080916203E0
:1053400090916303A0916403B091650340911E04A2
:1053500050911F04840F951FA11DB11D8093ED0373
:105360009093EE03A093EF03B093F0032093FD031B
:10537000B6CB813009F0CECB80916203909163036C
:10538000A0916403B09165034091ED035091EE0349
:105390006091EF037091F003481759076A077B0784
:1053A00008F0B8CB1092FD03EBEDF3E08281882387
:1053B00011F08F5F8283319623E0E23EF207B1F76E
:1053C0001092EC038CCB033009F0BDC090910E0419
:1053D0009091DB030091FC03013009F080CB923007
:1053E00009F07DCB9091FD03911122C04091C20440
:1053F0005091C3046091C4047091C5040E94D51BF0
:10540000AE9A8091650084608093650090910E044F
:10541000E0910C04F0910D04808121E030E001C0A6
:10542000220F9A95EAF7822B80830093FD037FC0B9
:10543000913009F06FCB4091C2045091C304609148
:10544000C4047091C50440909E0450909F046090E5
:10545000A0047090A1044416550666067706C8F0AD
:105460000E94D51BAE98809165008B7F809365006C
:1054700030910E04E0910C04F0910D04208181E044
:1054800090E002C0880F991F3A95E2F780959095B9
:105490003FCF8090620390906303A0906403B0902C
:1054A00065038B8E9C8EAD8EBE8EA090A704B090AF
:1054B000A804C090A904D090AA04760165018B8C41
:1054C0009C8CAD8CBE8CC814D904EA04FB0408F093
:1054D00021CB8090A2049090A304A090A404B0904B
:1054E000A504481459046A047B04E1F40E94D51B06
:1054F000AE98809165008B7F8093650030910E049B
:10550000E0910C04F0910D04208181E090E002C054
:10551000880F991F3A95E2F78095909582238083B2
:105520001092FD038091DC03813009F49BCF8091C0
:10553000620390916303A0916403B09165030596A3
:10554000A11DB11DC4CA043009F045C080910E04EC
:105550008091DB032091FC03213009F0C0CA823026
:1055600009F0BDCA8091FD0381110DC080916203D5
:1055700090916303A0916403B0916503409120046E
:1055800050912104E7CE813009F0C4CA80916203B2
:1055900090916303A0916403B09165034091ED0382
:1055A0005091EE036091EF037091F0034817590793
:1055B0006A077B0708F0AECA1092FD03EDEDF3E039
:1055C0008191882321F0DF0111978F5F8C93E21581
:1055D000F305B1F7F5CE053009F082C090910E04C5
:1055E0009091DB030091FC03013009F078CA9230FE
:1055F00009F075CA9091FD0391110BC04091C6044A
:105600005091C7046091C8047091C9040E94D51BD1
:10561000F8CE913009F07ECA4091C6045091C7047B
:105620006091C8047091C90440909E0450909F04FA
:105630006090A0047090A104441655066606770693
:1056400018F00E94D51B0FCFA0906203B0906303A7
:10565000C0906403D0906503AB8EBC8ECD8EDE8E81
:10566000C090A704D090A804E090A904F090AA04E8
:105670008B8C9C8CAD8CBE8CC814D904EA04FB04C2
:1056800008F048CA8090A2049090A304A090A404BB
:10569000B090A504481459046A047B04D9F40E940C
:1056A000D51B809165008B7F8093650030910E043F
:1056B000E0910C04F0910D04208181E090E002C0A3
:1056C000880F991F3A95E2F7809590958223808301
:1056D0001092FD038091DC03813009F028CFC3CE06
:1056E000063009F0FCC9D89AD99A1092FE0310929C
:1056F000FD031092FC03AFA1B8A5EAE01D92EA9564
:10570000E9F78CE68983DE011296EBEDF3E0828106
:105710008D931282319623E0E23EF207C1F7CE016B
:1057200001960E94AE1B80915C0390915D03A09155
:105730005E03B0915F03C296A11DB11D8093080462
:1057400090930904A0930A04B0930B0483E0809320
:10575000DB031092EC031092DC03C1C9843009F41E
:10576000A7C08530E9F4E0919804F09199048E8700
:105770001CC0E0919004F09191048E873097B9F4A9
:10578000F394ED868FEF8F0D833009F48CC030F7E2
:10579000813079F3E0919204F0919304823069F3BF
:1057A000E0918E04F0918F041E86309729F140918C
:1057B0006203509163036091640370916503818972
:1057C0009289A389B48984179507A607B707A0F023
:1057D000808191819F87888B82819381998B8A8B2D
:1057E000848195819B8B8C8B868197819D8B8E8B01
:1057F000CE010D960E94AE1B86E0F812C1CFAAE240
:10580000EA2EA4E0FA2EBAE69B2ED70119968C91C7
:105810001997813061F5998214968C9114978A8337
:105820008C9111969C91119712962C911297139628
:105830003C9113973B832C839D838E8315968C918B
:10584000159716969C9116979F83888717968C912B
:10585000179718969C9199878A878091DB038230ED
:1058600020F4CE0101960E94AE1BF7011186FAE0EA
:10587000EF0EF11C2EE8E21624E0F20631F68091DC
:105880005C0390915D03A0915E03B0915F030A9663
:10589000A11DB11D8093000490930104A093020404
:1058A000B09303047DC9E0919404F091950465CF11
:1058B000E0919604F091970460CF01963C96843174
:1058C000910509F077C980918102813009F078C192
:1058D000409162035091630360916403709165038A
:1058E00040908302509084026090850270908602FE
:1058F0004416550666067706A8F4809382028091C6
:10590000620390916303A0916403B09165034E9686
:10591000A11DB11D8093830290938402A093850200
:10592000B093860280918202813009F049C184EAF5
:105930000E94081D1092730084E88093740083E332
:105940009091740097FFE4C080917100E9C08230AB
:1059500009F088C0EA81E150E73008F0B4CFF0E008
:10596000EC54F34D0C94292ECE2CBB2CE52CEB2CB7
:10597000EB2C0B2D192D1092DD031092DE031092EB
:10598000DF031092E0031092E1031092E203109201
:10599000E3031092DB030E940B1B95CF82B390E1CF
:1059A000892782BBEB81F0E0E552FC4FB1E0B28386
:1059B0008A81843041F4B1878091DB03811183CFE8
:1059C0001093DB0380CF1186F7CF1093F9038B81FF
:1059D0008093FA0378CF8091DB03811174CF82B377
:1059E00090E1892782BB8B818093DE038C81809339
:1059F000DF038D818093E0038E818093E1038F81AB
:105A00008093E20388858093E30389858093FF0375
:105A10001093FC03D5CF61E080E090E00E94042E5B
:105A200088E198E00FB6F894A89581BD0FBE91BDAE
:105A3000FFCF82B390E1892782BB1093DE031093DE
:105A4000DF031093E0031093E1031093E20310933C
:105A5000E3031092FF031093FC031093DB031093F6
:105A6000DC0331CF8330F1F52A81822F90E0B0E062
:105A7000A0E06B81AC0133272227362B822B932B9E
:105A8000A42BB52B9C01AD0128513C4F4F4F5F4FCC
:105A9000ACE3B0E00E942F2E6093BE047093BF046D
:105AA0008093C0049093C1042B013C01E0EC4E0EA6
:105AB000E4ED5E1EE1E06E1E711C4092C204509245
:105AC000C3046092C4047092C50460527C468B4F3C
:105AD0009F4F6093C6047093C7048093C80490934B
